:100000000C9478020C946F0C0C94480C0C94960C85
:100010000C94960C0C94960C0C94A0020C94A002D8
:100020000C94A0020C94A0020C94A0020C94A002C8
:100030000C94A0020C94A0020C94A0020C94A002B8
:100040000C94FE0B0C94A0020C94CD0B0C94A70BFB
:100050000C94A0020C94A0020C94A0020C94A00298
:100060000C94A0020C94A00200407A10F35A00A055
:10007000724E18090010A5D4E80000E87648170071
:1000800000E40B54020000CA9A3B000000E1F505B1
:10009000000080969800000040420F000000A086FB
:1000A00001000000102700000000E803000000002D
:1000B0006400000000000A000000000001000000D1
:1000C00000002C76D888DC674F0823DFC1DFAE59EB
:1000D000E1B1B796E5E3E453C63AE651997696E87E
:1000E000E6C28426EB898C9B62ED407C6FFCEFBC02
:1000F0009C9F40F2BAA56FA5F490055A2AF75C932D
:100100006B6CF9676DC11BFCE0E40D47FEF520E662
:10011000B500D0ED902E0300943577050080841E45
:10012000080000204E0A000000C80C333333330FA0
:10013000986E12831141EF8D2114893BE65516CF3D
:10014000FEE6DB18D1844B381BF77C1D901DA4BB49
:10015000E424203284725E228100C9F124ECA1E5FE
:100160003D2741444445442050484F4E4533207874
:10017000787878787878787878200A00000000001D
:10018000000000000000000000000000000000006F
:10019000000000000000000000000000000000005F
:1001A000000000000000000000000000000000004F
:1001B000000000000000000000000000000000003F
:1001C000000000000000000000000000000000002F
:1001D000000000000000000000000000000000001F
:1001E000000000000000000000000000000000000F
:1001F00000000000000000004144444544205048F5
:100200004F4E4532207878787878787878787820EA
:100210000A000000000000000000000000000000D4
:1002200000000000000000000000000000000000CE
:1002300000000000000000000000000000000000BE
:1002400000000000000000000000000000000000AE
:10025000000000000000000000000000000000009E
:10026000000000000000000000000000000000008E
:10027000000000000000000000000000000000007E
:1002800000000000000000000000000000005662B6
:1002900061747C7C446469656E7C7C546D707C7C8C
:1002A0004143200A31352E357C7C31352E357C7C1E
:1002B00035352E357C7C4E4F4B7C7C444F4F522045
:1002C0002D2D2D2D2D200A00000000000000000023
:1002D000000000000000000000000000000000001E
:1002E000000000000000000000000000000000000E
:1002F00000000000000000000000000000000000FE
:1003000000000000000000000000000000000000ED
:1003100000000000000000000000000000000000DD
:100320000000000043616E682062616F2E204D6105
:1003300074206469656E206C756F69200A00000086
:1003400000000000000000000000000000000000AD
:10035000000000000000000000000000000000009D
:10036000000000000000000000000000000000008D
:10037000000000000000000000000000000000007D
:10038000000000000000000000000000000000006D
:10039000000000000000000000000000000000005D
:1003A000000000000000000000000000000000004D
:1003B00000000000000000000000535441525400AF
:1003C000000000000000000000000000000000002D
:1003D000000000000000000000000000000000001D
:1003E000000000000000000000000000000000000D
:1003F00000000000000000000000000000000000FD
:1004000000000000000000000000000000000000EC
:1004100000000000000000000000000000000000DC
:1004200000000000000000000000000000000000CC
:1004300000000000000000000000000000000000BC
:1004400000000000000000000000000000000000AC
:10045000415426570041542B434E4D493D322C32D6
:100460000041542B434D47443D312C340041542B23
:10047000434D47463D310041542B4950523D39369A
:1004800030300041544530000000000024002700B7
:100490002A0000000000250028002B0000000000BA
:1004A00023002600290004040404040404040202B6
:1004B00002020202030303030303010204081020E3
:1004C00040800102040810200102040810200000EE
:1004D0000008000201000003040700000000000003
:1004E0000000BA0324038E02F8016201A00C0A196D
:1004F00011241FBECFEFD8E0DEBFCDBF26E0A8E0BD
:10050000B2E001C01D92A732B207E1F712E0A0E00D
:10051000B1E0ECECF0E402C005900D92A830B10718
:10052000D9F712E0C7E7D2E004C02197FE010E948C
:10053000331EC637D107C9F70E94D80C0C94592036
:100540000C9400000895FC01248135816217730723
:1005500020F480819181009729F41092200280E29A
:1005600092E00895860F971F08950895AF92BF9265
:10057000CF92DF92EF92FF920F931F93CF93DF936F
:100580006C017B018B01040F151FEB015E01AE189E
:10059000BF08C017D10759F06991D601ED91FC91C0
:1005A0000190F081E02DC6010995892B79F7C501ED
:1005B000DF91CF911F910F91FF90EF90DF90CF903F
:1005C000BF90AF900895FC01538D448D252F30E0EE
:1005D000842F90E0821B930B541718F081509F4F8B
:1005E000089501970895FC01918D828D981759F017
:1005F000A28DAE0FBF2FB11D5D968C91928D9F5F26
:10060000928F90E008958FEF9FEF0895FC01918DF8
:10061000828D981731F0828DE80FF11D858D90E065
:1006200008958FEF9FEF0895FC01918D828D981BA7
:10063000892F90E008958AEF93E00E94140321E04F
:10064000892B09F420E0822F0895FC01A48DA80FC6
:10065000B92FB11DA35EBE4F9C91848D8F5F848F97
:10066000A689B7899C93A089B1898C918370806495
:100670008C93938D848D981306C00288F389E02DA6
:1006800080818F7D808308950F931F93CF93DF9395
:10069000EC0181E0888F9B8D8C8D981318C0E889C0
:1006A000F989808185FF13C09FB7F894EE89FF898F
:1006B0006083E889F98980818370806480839FBF2B
:1006C00081E090E0DF91CF911F910F910895062F67
:1006D0001B8D1F5F8C8D81130CC00FB607FCFACFEA
:1006E000E889F989808185FFF5CFCE010E94250335
:1006F000F1CFEB8DEC0FFD2FF11DE35EFE4F00837C
:100700009FB7F8941B8FEA89FB8980818062D6CFDE
:10071000CF93DF93EC01888D8823B9F0AA89BB8938
:10072000E889F9898C9185FD03C0808186FD0DC023
:100730000FB607FCF7CF8C9185FFF2CF808185FF44
:10074000EDCFCE010E942503E9CFDF91CF9108952F
:10075000833081F028F4813099F08230A9F0089537
:100760008730A9F08830C9F08430B1F480918000DE
:100770008F7D03C0809180008F77809380000895E3
:1007800084B58F7784BD089584B58F7DFBCF80912C
:10079000B0008F778093B00008958091B0008F7D76
:1007A000F9CFCF93DF93282F30E0F901E253FB4FCD
:1007B0008491F901E654FB4FD491F901EA55FB4FBE
:1007C000C491CC23A1F081110E94A803EC2FF0E08A
:1007D000EE0FFF1FE456FB4FA591B491EC91ED2372
:1007E00081E090E009F480E0DF91CF91089580E00E
:1007F00090E0FACF1F93CF93DF93282F30E0F901D9
:10080000E253FB4F8491F901E654FB4FD491F90177
:10081000EA55FB4FC491CC23A9F0162F81110E94F9
:10082000A803EC2FF0E0EE0FFF1FEE56FB4FA59153
:10083000B4918FB7F894EC91111108C0D095DE23D4
:10084000DC938FBFDF91CF911F910895DE2BF8CFFE
:10085000CF93DF9390E0FC01E654FB4F24918A553F
:100860009B4FFC0184918823C9F090E0880F991F69
:10087000FC01E857FB4FA591B491FC01EE56FB4FEC
:10088000C591D49161110DC09FB7F8948C912095BA
:1008900082238C938881282328839FBFDF91CF9167
:1008A0000895623051F49FB7F8943C91822F80955F
:1008B00083238C93E8812E2BEFCF8FB7F894EC91A4
:1008C0002E2B2C938FBFEACF8E50806480937C00B8
:1008D00080917A00806480937A0080917A0086FD0E
:1008E000FCCF809178009091790008959FB7F8949B
:1008F00040911C0250911D0260911E0270911F02D6
:1009000086B5A89B06C08F3F21F04F5F5F4F6F4FAA
:100910007F4F9FBF2227342F452F562F280F311D81
:10092000411D511DA5E0B0E00E94B41C08958F92B6
:100930009F92AF92BF92CF92DF92EF92FF920E946E
:1009400076044B015C0185E0C82ED12CE12CF12C02
:100950000E947604681979098A099B09683E7340E8
:1009600081059105A8F321E0C21AD108E108F10838
:1009700088EE880E83E0981EA11CB11CC114D1041E
:10098000E104F10429F7FF90EF90DF90CF90BF9042
:10099000AF909F908F9008952FB7F89460911802B0
:1009A0007091190280911A0290911B022FBF089535
:1009B0000E94CC0480912B0290912C02019690937E
:1009C0002C0280932B02089530E020E04BE559E0A3
:1009D000A895FA013197F1F72F5F3F4F82179307E0
:1009E000BCF70895CF93DF93D82FC8E06D2F6170C7
:1009F00084E00E94FA03D69561E083E00E94FA0346
:100A000060E083E00E94FA03C15081F7DF91CF914B
:100A100008952F923F924F925F926F927F928F92A2
:100A20009F92AF92BF92CF92DF92EF92FF920F937D
:100A30001F93CF93DF934B015C011A01FA013397A7
:100A4000E033F10508F070C0E85DFA4F0C94331EF6
:100A50003806940563056A06940558052207280799
:100A600033079405D60644074F0757075F07670704
:100A70006F07770794057F0787078F07940594050D
:100A8000940594059405940594059405940594059E
:100A9000940594059405940594059405940594058E
:100AA00094059405940594059405940594053907D7
:100AB000F1E1EF2EF12C01E110E0C4E1D0E044E1DE
:100AC000C42ED12C31C020E030E040E251E40E943D
:100AD000721D0E94E41D6B012AE0269FA001279F42
:100AE000500D1124BA01550F880B990B0E947E1BE3
:100AF0009B01AC01C501B4010E94051D0E94E41DCB
:100B0000EB0120E030E040E251E4C501B4010E9475
:100B1000DD1B0E94E41DCB016AE070E00E941F1EF5
:100B20008C01E4E1EE2EF12C61E080E10E94FA03F9
:100B300061E081E10E94FA0360E082E10E94FA0331
:100B400061E083E10E94FA03F601E65DFE4FD0808A
:100B5000D0948D2D0E94F2048DE02816310419F4F2
:100B60008D2D0E94F2040E94970461E080E10E94B2
:100B7000FA0360E081E10E94FA0361E082E10E94F1
:100B8000FA0361E083E10E94FA03FE01E65DFE4F95
:100B9000D080D0948D2D0E94F20485E02816310477
:100BA00009F4D9C10CF0CAC183E02816310409F454
:100BB000D2C10E94970460E080E10E94FA0361E0E4
:100BC00081E10E94FA0361E082E10E94FA0361E0A0
:100BD00083E10E94FA03F801E65DFE4FC081C095F3
:100BE0008C2F0E94F2048CE02816310409F4B8C15D
:100BF0008DE02816310439F4F801E05EFE4F808163
:100C000080950E94F2040E94970461E080E10E94B6
:100C1000FA0361E081E10E94FA0361E082E10E944F
:100C2000FA0360E083E10E94FA03F701E65DFE4FFC
:100C3000C081C0958C2F0E94F2048DE028163104EB
:100C400019F48C2F0E94F204DF91CF911F910F9124
:100C5000FF90EF90DF90CF90BF90AF909F908F90DC
:100C60007F906F905F904F903F902F900C949704DF
:100C700020E030E040E251E40E94721D0E94E41D39
:100C80006B012AE0269FA001279F500D1124BA0175
:100C9000550F880B990B0E947E1B9B01AC01C5016F
:100CA000B4010E94051D0E94E41DEB0120E030E02C
:100CB00040E251E4C501B4010E94DD1B0E94E41D25
:100CC000CB016AE070E00E941F1E8C017CE0E72EE1
:100CD000F12C2ACF409008015090090160900A0140
:100CE00070900B0120E030E040E251E4C301B2011A
:100CF0000E941A1E87FD30C020E030E040E251E43F
:100D0000C501B4010E94721D0E94E41D6B012AE01E
:100D1000269FA001279F500D1124BA01550F880B63
:100D2000990B0E947E1B9B01AC01C501B4010E947E
:100D3000051D0E94E41DEB0120E030E040E251E49B
:100D4000C501B4010E94DD1B0E94E41DCB016AE0D5
:100D500070E00E941F1E8C0120E030E040E251E470
:100D6000C301B2010E94771B87FFE4C0C501B40133
:100D70000E94E41D0AE010E0CB01B8010E941F1E92
:100D8000EC0120E030E040E251E4C501B4010E94F2
:100D9000DD1B0E94E41DCB01B8010E941F1E8C01C7
:100DA00063E1E62EF12CD12CC12CBECE20E030E048
:100DB00048EC52E40E94721D0E94E41D6B0124E67F
:100DC000269FA001279F500D1124BA01550F880BB3
:100DD000990B0E947E1B9B01AC01C501B4010E94CE
:100DE000051D2B013C0120E030E040E251E40E946F
:100DF000721D0E94E41DEB012AE0269FA001279F9F
:100E0000500D1124BA01550F880B990B0E947E1BBF
:100E10009B01AC01C301B2010E94051D0E94E41DAB
:100E20008B0120E030E040E251E4C501B4010E94B2
:100E3000DD1B0E94E41DCB016AE070E00E941F1ED2
:100E40007C0172CE52E1E52EF12C02E110E035CEAC
:100E500031E1E32EF12C01E110E0CCE0D0E09CE0A8
:100E6000C92ED12C61CE22E1E22EF12C02E110E05C
:100E7000F4CFDBE0ED2EF12C0BE010E0CBE0D0E086
:100E80008BE0C82ED12C50CECAE0EC2EF12C0AE01B
:100E900010E0C1E0D0E055E1C52ED12C45CEBAE03E
:100EA000EB2EF12C0AE010E0C2E0D0E0F4CFAAE093
:100EB000EA2EF12C0AE010E0C3E0D0E0ECCFFAE03B
:100EC000EF2EF12C0AE010E0C4E0D0E0E4CFEAE03D
:100ED000EE2EF12C0AE010E0C5E0D0E0DCCF7AE0A5
:100EE000E72EF12C0AE010E0C6E0D0E0D4CF6AE0B3
:100EF000E62EF12C0AE010E0C7E0D0E0CCCF7A017A
:100F0000EA0103E110E033E1C32ED12C0DCE45E11F
:100F1000E42EF12C05E110E0C6E1D0E0F4CF9FE033
:100F2000E92EF12C0FE010E0CFE0D0E02FE0C22E50
:100F3000D12CFACD83E1E82EF12CF6CD86E02816EF
:100F4000310449F08DE02816310409F032CE8D2DA0
:100F50000E94F2042ECEC05EDE4F88818095F8CFCD
:100F60008C2F4FCEFC0101900020E9F73197AF01A3
:100F7000481B590BBC018AEF93E00C94B602CF9347
:100F8000DF930E94B207EC0183E591E00E94B20773
:100F90008C0F9D1FDF91CF9108950F931F93CF93D7
:100FA000DF938C01D0E0C0E0F801EC0FFD1F6491ED
:100FB000662341F08AEF93E00E944403892B11F0ED
:100FC0002196F2CF83E591E00E94B2078C0F9D1F1E
:100FD000DF91CF911F910F910895CF93DF931092DE
:100FE00048021092490210924A0210924B02CAEF34
:100FF000D3E0E889F98982E08083EC85FD85108261
:10100000EE85FF858BE98083188EEC89FD8986E06B
:101010008083EA89FB89808180618083EA89FB89FA
:10102000808188608083EA89FB89808180688083F1
:10103000EA89FB8980818F7D808383E894E00E9428
:10104000CD0784EF91E00E94E40487E794E00E94DA
:10105000CD0784EF91E00E94E4048DE694E00E94C5
:10106000CD0784EF91E00E94E40481E694E00E94C1
:10107000CD0784EF91E00E94E40485E594E00E94AE
:10108000CD0784EF91E00E94E40486E591E00E94A0
:10109000BF0784EF91E00E94E4048BE691E00E9498
:1010A000BF0784EF91E00E94E40480E594E00E9491
:1010B000CD0784EF91E00E94E40488E791E00E946C
:1010C000BF0784EF91E00E94E40482E891E00E946F
:1010D000BF0784EF91E00E94E40482E390E0A0E087
:1010E000B0E08C839D83AE83BF83DF91CF91089561
:1010F0008AEF93E00E941403892B79F184E190E058
:101100000E94E4048AEF93E00E94F3028A3081F3A4
:101110008D3029F41092140210921302E9CF20911D
:101120001302309114022F3F310564F4A9014F5F7F
:101130005F4F509314024093130226503D4FF90124
:101140008083D6CF109214021092130265E571E0ED
:101150008AEF92E00E943820CBCF08950E941B03B3
:1011600081110C9478080895AF92BF92CF92DF92CC
:10117000EF92FF920F931F93CF93DF93DC01CD90FB
:10118000DC901197C114D10439F01496CD91DC9103
:101190008C017601209761F4DF91CF911F910F911F
:1011A000FF90EF90DF90CF90BF90AF9008957501C2
:1011B0005701BFEFAB1ABB0AF7018081082E000C64
:1011C000990B0E946E1B892B91F72197CC0DDD1D89
:1011D0008881082E000C990B0E946E1B892B29F028
:1011E000CE15DF0510F02197F3CFAE014F5F5F4FB3
:1011F0004E195F09D80115965C934E931497CE143F
:10120000DF0420F4B701C6010E942F20D801ED9120
:10121000FC91119714968D919C91E80FF91F108203
:10122000BBCF0F931F93CF93DF938C01EB01FC0196
:10123000808191810097E1F0688179816115710564
:10124000A9F0428153812C813D814217530770F0F0
:101250000E9438208C819D81F801958384831D82B2
:101260001C82DF91CF911F910F9108950E94E91E7A
:1012700088819981F801918380838A819B819383FE
:1012800082838C819D8195838483198218821B823D
:101290001A82E5CFCF93DF93EC0188819981009783
:1012A00011F00E94E91E198218821D821C821B8285
:1012B0001A82DF91CF910895FC018081918100977E
:1012C00011F00C94E91E08950F931F93CF93DF93B1
:1012D000EC0188819981009759F02A813B8126177A
:1012E000370730F081E0DF91CF911F910F91089582
:1012F0008B016F5F7F4F0E94721F009759F0998397
:1013000088831B830A832C813D81232B59F7FC01A1
:101310001082E8CF80E0E7CFEF92FF920F931F9308
:10132000CF93DF93EC017B018A01BA010E9464092B
:1013300081110BC0CE010E944A09CE01DF91CF91ED
:101340001F910F91FF90EF9008951D830C83B701BB
:10135000888199810E943820F0CFEF92FF920F93FD
:101360001F93CF93DF93CDB7DEB7A1970FB6F89455
:10137000DEBF0FBECDBF7C01CB01BA01F7011182E8
:10138000108213821282158214828E010F5F1F4F0A
:1013900022E044E00E9412190097C9F0FC0101907C
:1013A0000020E9F73197AF01481B590BBC01C70179
:1013B0000E948C09A1960FB6F894DEBF0FBECDBF78
:1013C000DF91CF911F910F91FF90EF900895C7018A
:1013D0000E944A09EFCFFB01DC0111961C921E927C
:1013E00013961C921E92129715961C921E92149799
:1013F0008617970749F0608171816115710521F0A9
:10140000448155810C948C090895FC01118210824D
:1014100013821282158214826115710551F0FB014D
:1014200001900020E9F73197AF01461B570B0C9450
:101430008C090895AF92BF92CF92DF92EF92FF9204
:101440000F931F93CF93DF938C017B016A015901A6
:1014500065E571E00E94050AD7011496CD91DC91F3
:10146000CC16DD0620F5AC16BD0608F4E501D70163
:10147000ED91FC911197EC0FFD1FB08010826D91E2
:101480007C916C0D7D1D61157105E9F0FB010190EA
:101490000020E9F73197AF01461B570BC8010E94A6
:1014A0008C09F70180819181C80FD91FB882C801CA
:1014B000DF91CF911F910F91FF90EF90DF90CF9030
:1014C000BF90AF900895C8010E944A09EACFEF92F9
:1014D000FF920F931F93CF93DF9300D000D000D0E3
:1014E000CDB7DEB78C0165E571E08AEF92E00E942E
:1014F00038206CE871E0CE0101960E94050AF801DF
:10150000E080F180E114F10409F478C004811581D0
:1015100001151105B9F08D819E81080F191FB801C1
:10152000CE0101960E946409882309F467C02981CD
:101530003A818D819E81B701820F931F0E943820CE
:101540001E830D830D811E810F5F1F4FB801CE01D9
:1015500001960E946409811156C0CE0101960E9435
:101560004A094D815E8169817A818AEF93E00E9408
:10157000B60283E591E00E94B207CE0101960E9477
:101580005C0980ED97E00E94E4048AEF93E00E94FA
:10159000880304E612E0F80161918F018AEF93E07D
:1015A0000E944403F2E00A3F1F07A9F78AEF93E085
:1015B0000E94880365E571E08AEF92E00E9438207E
:1015C00083E591E00E94B2076AE18AEF93E00E940E
:1015D000440383E591E00E94B2078CEA9DE00E94FB
:1015E000E40426960FB6F894DEBF0FBECDBFDF91A0
:1015F000CF911F910F91FF90EF900895CE0101962A
:101600000E944A099FCF29813A818D819E8164E998
:1016100071E0820F931F0E9438201E830D83A1CF9B
:10162000CF93DF93CDB7DEB72C970FB6F894DEBF1C
:101630000FBECDBF6DE176E0CE0101960E94EB09B1
:10164000CE0101960E94670ACE0101960E945C09B4
:1016500080916302882381F180E197E20E94E40493
:101660001092620266E971E0CE0107960E94050AB7
:1016700068E572E0CE0101960E94050ABE016F5F27
:101680007F4FCE0107960E941109CE0101960E945C
:101690005C09BE01695F7F4FCE0101960E94EB0994
:1016A000CE0101960E94670ACE0101960E945C0954
:1016B000CE0107960E945C0980915702882381F130
:1016C00080E197E20E94E4041092560266E971E01C
:1016D000CE0107960E94050A6CE472E0CE010196E5
:1016E0000E94050ABE016F5F7F4FCE0107960E94E0
:1016F0001109CE0101960E945C09BE01695F7F4F0E
:10170000CE0101960E94EB09CE0101960E94670A64
:10171000CE0101960E945C09CE0107960E945C09E9
:101720000E94CC04609348027093490280934A025D
:1017300090934B022C960FB6F894DEBF0FBECDBF30
:10174000DF91CF9108950C94A61C0C949E1C1F92BF
:101750000F920FB60F9211242F933F934F935F93E5
:101760006F937F938F939F93AF93BF93EF93FF9369
:101770008AEF93E00E942503FF91EF91BF91AF9113
:101780009F918F917F916F915F914F913F912F9199
:101790000F900FBE0F901F9018951F920F920FB6CB
:1017A0000F9211242F938F939F93EF93FF93E091C8
:1017B0000A04F0910B048081E0911004F09111046F
:1017C00082FD1AC09081809113048F5F20911404D0
:1017D000821741F0E0911304F0E0E650FC4F958F42
:1017E00080931304FF91EF919F918F912F910F9010
:1017F0000FBE0F901F9018958081F4CF1F920F920B
:101800000FB60F9211242F933F938F939F93AF9313
:10181000BF938091180290911902A0911A02B09181
:101820001B02309117022DE2230F2D3758F5019638
:10183000A11DB11D209317028093180290931902E5
:10184000A0931A02B0931B0280911C0290911D027A
:10185000A0911E02B0911F020196A11DB11D80939F
:101860001C0290931D02A0931E02B0931F02BF9111
:10187000AF919F918F913F912F910F900FBE0F903D
:101880001F90189520EB230F0296A11DB11DD2CFFA
:101890001F920F920FB60F9211242F933F934F93E5
:1018A0005F936F937F938F939F93AF93BF93EF93C8
:1018B000FF93E0910201F09103010995FF91EF91EF
:1018C000BF91AF919F918F917F916F915F914F9158
:1018D0003F912F910F900FBE0F901F9018951F9260
:1018E0000F920FB60F9211242F933F934F935F9354
:1018F0006F937F938F939F93AF93BF93EF93FF93D8
:10190000E0910001F09101010995FF91EF91BF91E4
:10191000AF919F918F917F916F915F914F913F9187
:101920002F910F900FBE0F901F9018951F920F923E
:101930000FB60F9211240F900FBE0F901F901895A5
:10194000EAEFF3E01382128288EE93E0A0E0B0E0C9
:1019500084839583A683B78385E491E09183808314
:1019600085EC90E09587848784EC90E09787868764
:1019700080EC90E0918B808B81EC90E0938B828B5C
:1019800082EC90E0958B848B86EC90E0978B868B35
:10199000118E128E138E148E61EA71E08DE196E045
:1019A0000E94050A65E571E087E196E00C94050A5E
:1019B000CF93DF93CDB7DEB766970FB6F894DEBF4F
:1019C0000FBECDBF789484B5826084BD84B581603C
:1019D00084BD85B5826085BD85B5816085BD8091FA
:1019E0006E00816080936E00109281008091810072
:1019F000826080938100809181008160809381006A
:101A0000809180008160809380008091B10084602B
:101A10008093B1008091B00081608093B00080918C
:101A20007A00846080937A0080917A00826080934B
:101A30007A0080917A008E7F80937A0080917A007C
:101A4000806880937A001092C10081E08093380210
:101A50008093370280932D0280933A0280933B0259
:101A600080932E0210922C0210922B0210922A02C6
:101A700010922902109263021092570210923902BA
:101A800081E090E0909347028093460261E080E11C
:101A90000E94280461E081E10E94280461E082E163
:101AA0000E94280461E083E10E94280461E084E050
:101AB0000E94280461E083E00E94280461E084E041
:101AC0000E94280461E083E00E94280461E088E02D
:101AD0000E94280461E08AE00E94280461E089E015
:101AE0000E94280460E084E10E94280460E085E10F
:101AF0000E94280460E082E00E94280462E085E001
:101B00000E94280462E08DE00E94280462E08CE0DC
:101B10000E94280462E08BE00E94280490E080E0AC
:101B20000E94A50BE82E82E090E00E94A50BF82E03
:101B300084E090E00E94A50B082F86E090E00E94D0
:101B4000A50B182F6E2DEE0C770B880B990B0E94AE
:101B50007E1B2B013C0140922F025092300260927A
:101B60003102709232026F2DFF0C770B880B990BAC
:101B70000E947E1B4B015C018092330290923402E2
:101B8000A0923502B0923602602F000F770B880BBF
:101B9000990B0E947E1B6B017C01C0922502D092A2
:101BA0002602E0922702F0922802612F110F770B94
:101BB000880B990B0E947E1B6B8B7C8B8D8B9E8B75
:101BC0006093210270932202809323029093240257
:101BD00020E030E040EA50E4C301B2010E94771BEC
:101BE00087FF0CC080E090E0A0E2B1E480932F0278
:101BF00090933002A0933102B093320220E030E0A3
:101C000040EA50E4C501B4010E94771B87FF0CC075
:101C100080E090E0A0E7B1E4809333029093340237
:101C2000A0933502B093360220E030E040EA50E461
:101C3000C701B6010E94771B87FF0CC080E090E0CF
:101C4000A0E2B1E48093250290932602A09327029C
:101C5000B093280220E030E040EA50E46B897C89B0
:101C60008D899E890E94771B87FF0CC080E090E0E1
:101C7000A0E7B1E48093210290932202A093230273
:101C8000B09324028EE190E00E94A50B809358024D
:101C9000803309F07AC380E290E00E94A50B809324
:101CA000590282E290E00E94A50B80935A0284E2DE
:101CB00090E00E94A50B80935B0286E290E00E9478
:101CC000A50B80935C0288E290E00E94A50B8093B4
:101CD0005D028AE290E00E94A50B80935E028CE296
:101CE00090E00E94A50B80935F028EE290E00E943C
:101CF000A50B8093600280E390E00E94A50B809387
:101D0000610281E08093630288E390E00E94A50B6A
:101D100080934C02803309F03FC38AE390E00E9435
:101D2000A50B80934D028CE390E00E94A50B80935D
:101D30004E028EE390E00E94A50B80934F0280E458
:101D400090E00E94A50B8093500282E490E00E94F4
:101D5000A50B8093510284E490E00E94A50B809330
:101D6000520286E490E00E94A50B8093530288E41F
:101D700090E00E94A50B809354028AE490E00E94B8
:101D8000A50B8093550281E08093570280E29EE488
:101D90000E94E4040E94ED0733E0332E44244A9469
:101DA000542C52EA652E52E0752E11E004E022E236
:101DB000E22EF12C8DE00E94D103892BD1F496E420
:101DC000C92ED12C60912F02709130028091310286
:101DD0009091320249E050E00E94090521E0C21AC8
:101DE000D10881F782E08093390210922A02109282
:101DF0002902809139028823B1F0823009F44DC361
:101E00000CF0D3C2813009F4BAC3809129029091B9
:101E10002A02019690932A028093290280399140E8
:101E200044F31092390285E10E946404BC01990FC9
:101E3000880B990B0E947E1B27E73EEB4FE95DEB79
:101E40000E94DD1B23E333E34BE452E40E94061DB2
:101E5000609304017093050180930601909307013C
:101E600084E10E946404BC01990F880B990B0E94C5
:101E70007E1B2CEE31E548EB5DE30E94DD1B2CEE72
:101E800031E548EB5EE30E94061D60930C01709300
:101E90000D0180930E0190930F018FE00E94640466
:101EA000BC01990F880B990B0E947E1B2EE53AEB23
:101EB00049E05EE30E94DD1B26E636E646EE5FE380
:101EC0000E94051D609308017093090180930A0127
:101ED00090930B010E94CC0450922C0240922B0252
:101EE000E8EDF4E0F0930101E093000180916900D6
:101EF000836080936900E89A4AE0C42ED12C8091D7
:101F00002B0290912C020A9744F484EF91E00E94F6
:101F1000E404F1E0CF1AD10891F7E898709201013A
:101F20006092000180912B0290912C020B970CF48F
:101F30000AC410933B0285E00E94D103892B09F06B
:101F400005C410923A02609133027091340280917C
:101F500035029091360280900C0190900D01A09076
:101F60000E01B0900F0120913702222309F4F1C332
:101F70009B01AC01C501B4010E941A1E181674F031
:101F8000A501940160912F0270913002809131027D
:101F9000909132020E941A1E181614F41092370201
:101FA0008090040190900501A0900601B090070177
:101FB00080913802882309F4F0C320E030E044E344
:101FC00052E4C501B4010E941A1E181614F41092AE
:101FD0003802C0903B0280912E02882341F0C1104C
:101FE00006C010922E02F0924702E09246028091C3
:101FF0002E02811108C0CC2031F010932E02F092F5
:102000004702E09246028091370290912D02911191
:1020100008C0882331F010932D02F0924702E0921D
:10202000460290912D02992341F0811106C0109231
:102030002D02F0924702E092460220E030E0A90132
:10204000C501B4010E94771B87FF08C010920401EC
:10205000109205011092060110920701D0903902EA
:10206000D11029C032E3A32EB12CCC2009F4A3C394
:10207000609108017091090180910A0190910B0112
:1020800046E150E00E94090521E0A21AB10881F75B
:1020900022E3A22EB12C6091080170910901809178
:1020A0000A0190910B0146E050E00E94090591E081
:1020B000A91AB10881F78091370261E0811160E0CF
:1020C00089E00E94FA038091380261E0811101C029
:1020D00060E088E00E94FA03D11013C092E3A92EB9
:1020E000B12C60910C0170910D0180910E019091C5
:1020F0000F0145E050E00E940905A1E0AA1AB108CD
:1021000081F780913B0260E0811161E08AE00E94EA
:10211000FA03D11013C082E3C82ED12C60910401C0
:1021200070910501809106019091070143E050E014
:102130000E940905B1E0CB1AD10881F780914602CF
:10214000909147028432910509F458C38632910573
:1021500009F499C3829709F0EBC0109248021092DB
:10216000490210924A0210924B02109242021092BF
:1021700043021092440210924502B6EECB2EB4E018
:10218000DB2EF6016591749184E692E00E9430198D
:1021900040910C0150910D0160910E0170910F0161
:1021A000CE010D960E94AD094091080150910901A0
:1021B00060910A0170910B01CE0107960E94AD0952
:1021C0004091040150910501609106017091070151
:1021D000CE0101960E94AD09F6016591749184E6E5
:1021E00092E00E94301970E060E0CE010D960E94EE
:1021F000A302FC01808180937A0261E070E0CE014D
:102200000D960E94A302DC018C9180937B0262E018
:1022100070E0CE010D960E94A302FC0180818093A4
:102220007C0263E070E0CE010D960E94A302DC0107
:102230008C9180937D0270E060E0CE0107960E9451
:10224000A302FC0180818093800261E070E0CE01F6
:1022500007960E94A302DC018C918093810262E0C8
:1022600070E0CE0107960E94A302FC01808180935A
:10227000820263E070E0CE0107960E94A302DC01B7
:102280008C918093830270E060E0CE0101960E9401
:10229000A302FC0180818093860261E070E0CE01A0
:1022A00001960E94A302DC018C918093870262E078
:1022B00070E0CE0101960E94A302FC018081809310
:1022C000880263E070E0CE0101960E94A302DC0167
:1022D0008C918093890280913B02882309F47CC20F
:1022E00080E280938C0280913A02882309F476C2BE
:1022F0008FE48093960280E58093970285E4809333
:1023000098028EE480939902CE0101960E945C09A6
:10231000CE0107960E945C09CE010D960E945C09D1
:102320000E94100B83E290E0909347028093460254
:102330000E9478086CEA71E08AEF92E00E943F20E8
:10234000892B09F4DFC2F0924702E092460265E56C
:1023500071E08AEF92E00E943820109248021092B9
:10236000490210924A0210924B02109242021092BD
:10237000430210924402109245020E941B038823DC
:1023800009F418CD0E94780810CD65E571E088E564
:1023900092E00E943820B8CC65E571E08CE492E0D0
:1023A0000E94382010925702F1CC833009F459C1B1
:1023B000843009F02ACD8CE00E94D103892BB1F43E
:1023C00020E030E040E85FE3609125027091260252
:1023D00080912702909128020E94061D6093250299
:1023E0007093260280932702909328028BE00E942C
:1023F000D103892BB1F420E030E040E85FE3609145
:1024000025027091260280912702909128020E9455
:10241000051D6093250270932602809327029093F6
:1024200028028DE00E94D103892B19F560912502C5
:102430007091260280912702909128020E94EB1D44
:1024400084E090E00E94A30B30923902E2E3CE2EAA
:10245000D12C6091250270912602809127029091E3
:1024600028024AE050E00E940905E1E0CE1AD108B6
:1024700081F77FE0C72ED12C609125027091260252
:10248000809127029091280243E050E00E940905C4
:10249000F1E0CF1AD10881F7B8CC8CE00E94D103CB
:1024A000892BB1F420E030E040E85FE360912F0237
:1024B0007091300280913102909132020E94061D8B
:1024C00060932F0270933002809331029093320216
:1024D0008BE00E94D103892BB1F420E030E040E88A
:1024E0005FE360912F0270913002809131029091F0
:1024F00032020E94051D60932F0270933002809378
:102500003102909332028DE00E94D103892B19F59C
:1025100060912F02709130028091310290913202CD
:102520000E94EB1D90E080E00E94A30B1093390203
:1025300082E3C82ED12C60912F02709130028091DD
:1025400031029091320248E050E00E94090581E09A
:10255000C81AD10881F7BFE0CB2ED12C60912F0291
:1025600070913002809131029091320245E050E04A
:102570000E94090591E0C91AD10881F746CC8CE088
:102580000E94D103892BB1F420E030E040E85FE302
:10259000609133027091340280913502909136023D
:1025A0000E94061D609333027093340280933502BB
:1025B000909336028BE00E94D103892BB1F420E086
:1025C00030E040E85FE36091330270913402809123
:1025D0003502909136020E94051D6093330270937C
:1025E000340280933502909336028DE00E94D1032D
:1025F000892B19F560913302709134028091350274
:10260000909136020E94EB1D82E090E00E94A30BA5
:1026100000933902A2E3CA2ED12C6091330270914B
:10262000340280913502909136024BE050E00E94D6
:102630000905A1E0CA1AD10881F7FFE0CF2ED12CFD
:10264000609133027091340280913502909136028C
:1026500045E050E00E940905B1E0CB1AD10881F7AE
:10266000D4CB8CE00E94D103892BB1F420E030E080
:1026700040E85FE360912102709122028091230281
:10268000909124020E94061D609321027093220201
:1026900080932302909324028BE00E94D103892B24
:1026A000B1F420E030E040E85FE3609121027091F6
:1026B000220280912302909124020E94051D6093C2
:1026C00021027093220280932302909324028DE0D2
:1026D0000E94D103892B19F5609121027091220289
:1026E00080912302909124020E94EB1D86E090E0ED
:1026F0000E94A30B1092390262E3C62ED12C609186
:10270000210270912202809123029091240242E3DF
:1027100050E00E94090521E0C21AD10881F75FE06C
:10272000C52ED12C6091210270912202809123024A
:102730009091240243E050E00E94090581E0C81A0C
:10274000D10881F762CB10923B02F5CB10933A028D
:10275000FACB20E030E040E85FE30E94051DA501D0
:1027600094010E941A1E87FD1BCC20E030E040E857
:102770005FE360912F02709130028091310290915D
:1027800032020E94061DA50194010E94771B1816B3
:102790000CF406CC1093370203CC20E030E04CE27E
:1027A00052E4C501B4010E94771B18160CF411CC39
:1027B000109338020ECC609108017091090180914C
:1027C0000A0190910B0147E150E00E94090581E068
:1027D000A81AB10881F75CCC8EE483CD83E48093A2
:1027E00096028CE4809397028FE48093980283E5AD
:1027F0008093990285E480939A0286CD10924802D4
:102800001092490210924A0210924B021092420218
:10281000109243021092440210924502E8EEF4E056
:102820006591749184E692E00E943019809158027B
:1028300080937102809159028093720280915A02B2
:102840008093730280915B028093740280915C029A
:102850008093750280915D028093760280915E0282
:102860008093770280915F0280937802809160026A
:10287000809379028091610280937A020E94100B0A
:1028800085E290E051CD10924802109249021092D8
:102890004A0210924B02109242021092430210928E
:1028A000440210924502EAEEF4E06591749184E6E8
:1028B00092E00E94301980914C02809371028091C5
:1028C0004D028093720280914E0280937302809138
:1028D0004F02809374028091500280937502809120
:1028E0005102809376028091520280937702809108
:1028F00053028093780280915402809379028091F0
:102900005502BACF62EB71E08AEF92E00E943F205D
:10291000892B39F065E571E08AEF92E00E9438205A
:102920002CCD68EB71E08AEF92E00E943F20892B6A
:1029300089F76CEB71E08AEF92E00E943F20892BCF
:1029400049F760EC71E08AEF92E00E943F20892B0A
:1029500009F76BEC71E08AEF92E00E943F20892B2F
:10296000C9F665ED71E08AEF92E00E943F20892B65
:1029700089F66DED71E08AEF92E00E943F200097AA
:1029800031F1BC01CE0107960E94050A21E130E039
:1029900043E050E0BE01695F7F4FCE0101960E9487
:1029A0001A0ABE016F5F7F4F87E196E00E9411090E
:1029B000CE0101960E945C0965E571E08AEF92E024
:1029C0000E943820CE0107960E945C09D6CC6AEDA1
:1029D00071E08AEF92E00E943F20009731F0BC0145
:1029E00084E692E00E94382095CF61EE71E08AEF94
:1029F00092E00E943F20009709F45CC0BC01CE0128
:102A000007960E94050A2BE030E044E050E0BE014A
:102A1000695F7F4FCE0101960E941A0AA0E1CA2E7B
:102A2000A1E0DA2EB12CA12CB501CE0101960E94B5
:102A3000A302FC018081D6018D936D01BFEFAB1A1B
:102A4000BB0AE7E0AE16B10479F76091100188E0A7
:102A500090E00E94A30B609111018AE090E00E9437
:102A6000A30B609112018CE090E00E94A30B609197
:102A700013018EE090E00E94A30B6091140180E1AD
:102A800090E00E94A30B6091150182E190E00E940A
:102A9000A30B6091160184E190E00E94A30B65E511
:102AA00071E08AEF92E00E943820CE0101960E94E8
:102AB0005C0988CF66EE71E08AEF92E00E943F20C9
:102AC000009709F474C0BC01CE0107960E94050A64
:102AD00021E130E047E050E0BE01695F7F4FCE0169
:102AE00001960E941A0ACE0101960E94B40888E855
:102AF00093E10E94E404F8E5CF2EF2E0DF2EB12C42
:102B0000A12CB501CE0101960E94A302DC018C919B
:102B1000F60181936F01FFEFAF1ABF0A2AE0A216F8
:102B2000B10479F7609158028EE190E00E94A30B06
:102B30006091590280E290E00E94A30B60915A02DA
:102B400082E290E00E94A30B60915B0284E290E03D
:102B50000E94A30B60915C0286E290E00E94A30BAE
:102B600060915D0288E290E00E94A30B60915E029A
:102B70008AE290E00E94A30B60915F028CE290E0F9
:102B80000E94A30B609160028EE290E00E94A30B72
:102B90006091610280E390E00E94A30B10936302B6
:102BA00084E290E0909347028093460278CF6EEEE5
:102BB00071E08AEF92E00E943F20009709F46CC018
:102BC000BC01CE0107960E94050A21E130E047E0F2
:102BD00050E0BE01695F7F4FCE0101960E941A0A44
:102BE000CE0101960E94B408ECE4AE2EE2E0BE2EC7
:102BF000D12CC12CB601CE0101960E94A302DC01AA
:102C00008C91F50181935F01FFEFCF1ADF0A2AE073
:102C1000C216D10479F760914C0288E390E00E94DB
:102C2000A30B60914D028AE390E00E94A30B609198
:102C30004E028CE390E00E94A30B60914F028EE362
:102C400090E00E94A30B6091500280E490E00E940B
:102C5000A30B6091510282E490E00E94A30B60916B
:102C6000520284E490E00E94A30B6091530286E438
:102C700090E00E94A30B6091540288E490E00E94CF
:102C8000A30B609155028AE490E00E94A30B10937D
:102C9000570286E290E086CF66EF71E08AEF92E01D
:102CA0000E943F20892B09F035CE6CEF71E08AEF4E
:102CB00092E00E943F20892B09F02CCE0E94CC0488
:102CC00060933E0270933F028093400290934102D2
:102CD0008090420290904302A0904402B09045023E
:102CE00081149104A104B10409F44BC0E09146029F
:102CF000F09147023297E931F10508F042C0ED57F3
:102D0000F94E0C94331E9C16C1162E17C11665176A
:102D1000C1169C17C116D317C1160A18C11641183F
:102D2000C116C116C116C116C116C116C116C116EB
:102D3000C116C116C1167818681979098A099B0944
:102D400061327E448105910508F05EC061E072E069
:102D50008AEF92E00E943F20892B09F40ECB83E09A
:102D600090E0909347028093460210923D021092A9
:102D70003C021092420210924302109244021092BE
:102D800045028091480290914902A0914A02B09177
:102D90004B020097A105B10509F4EFCA2091460244
:102DA000309147022532310509F4F9C12732310546
:102DB00009F415C22332310509F0DFCA40913E0201
:102DC00050913F026091400270914102481B590BA3
:102DD0006A0B7B0B403355476105710508F0C1C193
:102DE00061E072E08AEF92E00E943F20892B09F4B3
:102DF000C4CA81E090E0909347028093460210920B
:102E00003D0210923C02C2C181E090E090934702E3
:102E10008093460280913C0290913D0201969093EE
:102E20003D0280933C0203970CF4A3CF78ECC72EAD
:102E3000D12C4EE050E061EE7AEF87EC92E40E94F4
:102E40000905B1E0CB1AD108A1F70E94ED0781E096
:102E500090E090934702809346028BCF68197909DE
:102E60008A099B0961327E448105910560F461E025
:102E700072E08AEF92E00E943F20892B09F47DCA1C
:102E800085E090E06ECF83E090E0909347028093DE
:102E9000460280913C0290913D02019690933D0242
:102EA00080933C0203970CF464CF68ECC62ED12CBF
:102EB0004FE050E061EE7AEF87EC92E40E94090562
:102EC000F1E0CF1AD108A1F7C0CF681979098A09B2
:102ED0009B0961327E448105910560F461E072E0F6
:102EE0008AEF92E00E943F20892B09F446CA87E0CE
:102EF00090E037CF85E090E09093470280934602C0
:102F000080913C0290913D02019690933D02809306
:102F10003C0203970CF431CA58ECC52ED12C40E189
:102F200050E061EE7AEF87EC92E40E94090581E0BF
:102F3000C81AD108A1F789CF681979098A099B09AC
:102F400061327E448105910560F461E072E08AEFB0
:102F500092E00E943F20892B09F40FCA89E090E09B
:102F600000CF87E090E090934702809346028091E3
:102F70003C0290913D02019690933D0280933C0269
:102F800003970CF4F6CE48ECC42ED12C41E150E06E
:102F900061EE7AEF87EC92E40E940905B1E0CB1A6A
:102FA000D108A1F752CF681979098A099B096132C2
:102FB0007E448105910560F461E072E08AEF92E061
:102FC0000E943F20892B09F4D8C98BE090E0C9CE3C
:102FD00089E090E0909347028093460280913C0202
:102FE00090913D02019690933D0280933C0203979D
:102FF0000CF4BFCE38ECC32ED12C42E150E061EE90
:103000007AEF87EC92E40E940905F1E0CF1AD1082B
:10301000A1F71BCF681979098A099B0961327E449F
:103020008105910560F461E072E08AEF92E00E9410
:103030003F20892B09F4A1C98DE090E092CE8BE06E
:1030400090E0909347028093460280913C029091D9
:103050003D02019690933D0280933C0203970CF44D
:1030600088CE28ECC22ED12C43E150E061EE7AEFFD
:1030700087EC92E40E94090581E0C81AD108A1F703
:10308000E4CE681979098A099B0961327E44810579
:10309000910560F464E072E08AEF92E00E943F20C4
:1030A000892B09F46AC984E190E05BCE8DE090E061
:1030B000909347028093460280913C0290913D029A
:1030C000019690933D0280933C0203970CF455C9FE
:1030D00098ECC92ED12C44E150E061EE7AEF87ECF8
:1030E00092E40E940905B1E0CB1AD108A1F7ADCE58
:1030F000681979098A099B0960327E448105910526
:1031000070F461E072E08AEF92E00E943F20892B28
:1031100009F433C90E94CC0485E190E022CE81E01D
:1031200090E0909347028093460280913C029091F8
:103130003D02019690933D0280933C0203970CF46C
:103140001CC988ECC82ED12C45E150E061EE7AEF25
:1031500087EC92E40E940905F1E0CF1AD108A1F7AB
:1031600074CEF0924702E092460280913C02909128
:103170003D02019690933D0280933C02029734F009
:103180000E94ED07F0924702E09246021092480238
:103190001092490210924A0210924B02EEC84091DE
:1031A0003E0250913F026091400270914102481BE3
:1031B000590B6A0B7B0B403355476105710508F4C9
:1031C0000FCE80913C0290913D02019690933D027A
:1031D00080933C020297D4F20E94ED07D7CF409132
:1031E0003E0250913F026091400270914102481BA3
:1031F000590B6A0B7B0B403355476105710508F786
:1032000061E072E08AEF92E00E943F20892B09F092
:10321000F6CDB3C887E196E00E945C098DE196E0A7
:103220000C945C09EF920F931F93CF93DF93E80107
:1032300034E047FD34E1042E000C550B57FF03C06A
:10324000519541955109E32E022F242FAE010E9482
:103250003719CE01DF91CF911F910F91EF90089513
:10326000FB01DC0105900D920020E1F70895A9E033
:10327000B0E0EDE3F9E10C94C51C6A01F22EB02E2A
:10328000102FFBE3AF2EA01608F41BE31F5F012FE6
:1032900027E0AE014F5F5F4F0E94961ABC01898103
:1032A000982F9970913009F43FC09BE2E1FC04C073
:1032B0009E2D9170E0FC3AC05E2D5071E82FE870B1
:1032C00083FF46C084E0911101C083E0EF2DE81B2D
:1032D0008F1508F0E0E0D6018E2F20E2552351F142
:1032E000992329F0D6019C93C60101966C019601A1
:1032F0002D5F3F4FE2FE24C08EE4D6018C9391E413
:1033000011969C93119712968C93D9018E2F90E26F
:1033100081111BC0E20FF32FF11D10828EEF9FEF82
:103320002996ECE00C94E11C9DE2C6CF90E2C4CF5C
:103330002D9381508111FCCFCE0ED11CE0E0D0CF77
:103340008EE6D6018C9391E6DBCF9D938150E0CF42
:10335000482F447082FF3DC084E0911101C083E09A
:103360008F1510F4EF2DE81BD6018E2F20E2552388
:1033700009F1992329F0D6019C93C60101966C01AD
:1033800096012D5F3F4FE2FE1BC089E4D6018C936E
:103390008EE411968C93119786E412968C93D90142
:1033A0008E2F90E2882309F4B5CF9D938150FACFF8
:1033B0002D9381508111FCCFCE0ED11CE0E0D9CFEE
:1033C00089E6D6018C938EE611968C93119786E64A
:1033D000E4CF9B0177FF02C030E020E0A1E0B0E045
:1033E000911102C0B0E0A0E0F9013196AE0FBF1F0D
:1033F0008B2C912CBB2009F461C05401EFEFAE1A65
:10340000BE0AAA0DBB1DFA161B0619F014F04F2DAB
:103410004A1B511188C0E3FC59C07601A42FB0E2C9
:10342000A1114FC0C40ED11C992309F45BC040E028
:10343000D6011196F60190836D01552309F448C019
:10344000012F060F9A81582F507184FF03C09133CA
:1034500009F4015010160CF047C0093008F008E0DC
:10346000EEE2FE2E5B01A01AB108850191948194D1
:1034700091082F3F320729F4D601FC92F6013196CC
:103480006F016217730794F1021713077CF5DB01D4
:10349000A21BB30BAA24A394B12CAC0EBD1EAA0D83
:1034A000BB1D11968C9121503109D601119628151A
:1034B0003905F4F0F60180836D01DBCFB12CA12C2E
:1034C000A0CFF701B1937F01A150AACF9111B0CF46
:1034D000D601942F50E302C05D9391509111FCCF1F
:1034E000C40ED11C40E0ACCF01E0BACF80E3DBCF0B
:1034F0006217730731F4963388F4953311F455232A
:1035000069F0F6018083FD01842F90E2811108C0EB
:10351000A40FB11D1C9290E080E002CF81E3F1CFB7
:1035200091938150F3CF911183CF8ACF283008F047
:1035300027E03327DA01990F311D87FD916000964E
:103540006105710539F432602E5F3D9330E32A95B1
:10355000E1F708959F3F30F080387105610509F06B
:103560003C5F3C5F3D93913008F08068911DDF9394
:10357000CF931F930F93FF92EF92192F987F9695F9
:10358000E92F96959695E90FFF27EE53FF4F992760
:103590003327EE24FF24A701E70105900894079440
:1035A00028F4360FE71EF81E491F511D660F771FBE
:1035B000881F991F0694A1F70590079428F4E70E39
:1035C000F81E491F561FC11D770F881F991F661FC0
:1035D0000694A1F70590079428F4F80E491F561F8A
:1035E000C71FD11D880F991F661F771F0694A1F76B
:1035F0000590079420F4490F561FC71FD81F990F35
:10360000661F771F881F0694A9F78491109517707D
:1036100041F0D695C79557954795F794E7941A9535
:10362000C1F7E8E6F0E06894159015913591659141
:10363000959105907FE27395E118F10A430B560BC3
:10364000C90BD009C0F7E10CF11E431F561FC91F5B
:10365000D01D7EF4703311F48A95E6CFE8940150C2
:1036600030F0080F0AF40027021708F4202F2395E2
:10367000022F7A3328F079E37D932A95E9F710C079
:103680007D932A9589F606949795679537951795B2
:103690001794E118F10A430B560BC90BD00998F0A7
:1036A00023957E9173957A3308F070E37C93201311
:1036B000B8F77E9170617D9330F0839571E37D93CF
:1036C00070E32A95E1F71124EF90FF900F911F917D
:1036D000CF91DF91992787FD9095089591110C94D2
:1036E0004A1C803219F089508550C8F708950E940D
:1036F000B91B08F481E00895E89409C097FB3EF4F3
:1037000090958095709561957F4F8F4F9F4F99232E
:10371000A9F0F92F96E9BB279395F69587957795AC
:103720006795B795F111F8CFFAF4BB0F11F460FF6C
:103730001BC06F5F7F4F8F4F9F4F16C0882311F0C4
:1037400096E911C0772321F09EE8872F762F05C0D8
:10375000662371F096E8862F70E060E02AF09A9573
:10376000660F771F881FDAF7880F9695879597F968
:103770000895990F0008550FAA0BE0E8FEEF161602
:103780001706E807F907C0F012161306E407F50755
:1037900098F0621B730B840B950B39F40A2661F0C9
:1037A000232B242B252B21F408950A2609F4A1406C
:1037B000A6958FEF811D811D08950E94F01B0C942A
:1037C000641C0E94561C38F00E945D1C20F095235A
:1037D00011F00C944D1C0C94531C11240C94981C47
:1037E0000E94751C70F3959FC1F3950F50E0551F13
:1037F000629FF001729FBB27F00DB11D639FAA2746
:10380000F00DB11DAA1F649F6627B00DA11D661F94
:10381000829F2227B00DA11D621F739FB00DA11DB5
:10382000621F839FA00D611D221F749F3327A00D6F
:10383000611D231F849F600D211D822F762F6A2F0B
:1038400011249F5750409AF0F1F088234AF0EE0F70
:10385000FF1FBB1F661F771F881F91505040A9F79D
:103860009E3F510580F00C944D1C0C94981C5F3FBA
:10387000E4F3983ED4F3869577956795B795F795D9
:10388000E7959F5FC1F7FE2B880F911D9695879551
:1038900097F9089599278827089597F99F6780E8F1
:1038A00070E060E008959FEF80EC089500240A9492
:1038B0001616170618060906089500240A9412160B
:1038C0001306140605060895092E0394000C11F43E
:1038D000882352F0BB0F40F4BF2B11F460FF04C0EB
:1038E0006F5F7F4F8F4F9F4F089557FD9058440F44
:1038F000551F59F05F3F71F04795880F97FB991F4F
:1039000061F09F3F79F0879508951216130614060B
:10391000551FF2CF4695F1DF08C016161706180698
:10392000991FF1CF86957105610508940895E89473
:10393000BB2766277727CB0197F90895F999FECF22
:1039400092BD81BDF89A992780B50895262FF999DF
:10395000FECF1FBA92BD81BD20BD0FB6F894FA9A72
:10396000F99A0FBE019608950E94F61CA59F900D2E
:10397000B49F900DA49F800D911D112408952F9246
:103980003F924F925F926F927F928F929F92AF92EF
:10399000BF92CF92DF92EF92FF920F931F93CF933C
:1039A000DF93CDB7DEB7CA1BDB0B0FB6F894DEBFD3
:1039B0000FBECDBF09942A88398848885F846E84F9
:1039C0007D848C849B84AA84B984C884DF80EE8043
:1039D000FD800C811B81AA81B981CE0FD11D0FB64C
:1039E000F894DEBF0FBECDBFED010895A29FB001D8
:1039F000B39FC001A39F700D811D1124911DB29F23
:103A0000700D811D1124911D08955058BB27AA27C0
:103A10000E941D1D0C94641C0E94561C38F00E94CC
:103A20005D1C20F039F49F3F19F426F40C94531CCC
:103A30000EF4E095E7FB0C944D1CE92F0E94751CD9
:103A400058F3BA17620773078407950720F079F4D3
:103A5000A6F50C94971C0EF4E0950B2EBA2FA02D12
:103A60000B01B90190010C01CA01A0011124FF272B
:103A7000591B99F0593F50F4503E68F11A16F04026
:103A8000A22F232F342F4427585FF3CF4695379525
:103A90002795A795F0405395C9F77EF41F16BA0BEA
:103AA000620B730B840BBAF09150A1F0FF0FBB1F98
:103AB000661F771F881FC2F70EC0BA0F621F731FE1
:103AC000841F48F4879577956795B795F7959E3F3E
:103AD00008F0B0CF9395880F08F09927EE0F9795CF
:103AE000879508950E94861D0C94641C0E945D1C9D
:103AF00058F00E94561C40F029F45F3F29F00C94C6
:103B00004D1C51110C94981C0C94531C0E94751C54
:103B100068F39923B1F3552391F3951B550BBB27FC
:103B2000AA2762177307840738F09F5F5F4F220F41
:103B3000331F441FAA1FA9F335D00E2E3AF0E0E838
:103B400032D091505040E695001CCAF72BD0FE2F82
:103B500029D0660F771F881FBB1F26173707480716
:103B6000AB07B0E809F0BB0B802DBF01FF279358CE
:103B70005F4F3AF09E3F510578F00C944D1C0C9429
:103B8000981C5F3FE4F3983ED4F38695779567954C
:103B9000B795F7959F5FC9F7880F911D9695879503
:103BA00097F90895E1E0660F771F881FBB1F621722
:103BB00073078407BA0720F0621B730B840BBA0BE0
:103BC000EE1F88F7E09508950E94EB1D6894B111EF
:103BD0000C94981C08950E947D1C88F09F5798F0C3
:103BE000B92F9927B751B0F0E1F0660F771F881F02
:103BF000991F1AF0BA95C9F714C0B13091F00E941C
:103C0000971CB1E008950C94971C672F782F882794
:103C1000B85F39F0B93FCCF3869577956795B39542
:103C2000D9F73EF490958095709561957F4F8F4FB1
:103C30009F4F08950E94B91B08F48FEF089597FBDA
:103C4000072E16F4009407D077FD09D00E94391E84
:103C500007FC05D03EF4909581959F4F089570958F
:103C600061957F4F0895EE0FFF1F0590F491E02DB1
:103C70000994AA1BBB1B51E107C0AA1FBB1FA617B3
:103C8000B70710F0A61BB70B881F991F5A95A9F705
:103C900080959095BC01CD0108950F931F93CF930C
:103CA000DF938230910510F482E090E0E0912506E8
:103CB000F091260630E020E0B0E0A0E0309799F4E3
:103CC0002115310509F44AC0281B390B2430310570
:103CD000D8F58A819B816115710589F1FB01938378
:103CE0008283FE0111C040815181028113814817F6
:103CF0005907E0F04817590799F4109761F01296A8
:103D00000C93129713961C933296CF01DF91CF91AB
:103D10001F910F9108950093250610932606F4CF66
:103D20002115310551F04217530738F0A901DB0185
:103D30009A01BD01DF01F801C1CFEF01F9CF9093E6
:103D4000260680932506CDCFFE01E20FF31F819357
:103D500091932250310939832883D7CF20912306AC
:103D600030912406232B41F420911C0130911D0138
:103D7000309324062093230620911A0130911B01D1
:103D80002115310541F42DB73EB740911E015091E8
:103D90001F01241B350BE0912306F0912406E21746
:103DA000F307A0F42E1B3F0B2817390778F0AC015E
:103DB0004E5F5F4F2417350748F04E0F5F1F50933B
:103DC000240640932306819391939FCFF0E0E0E097
:103DD0009CCFCF93DF930097E9F0FC0132971382D9
:103DE0001282A0912506B0912606ED0130E020E078
:103DF0001097A1F420813181820F931F2091230617
:103E0000309124062817390709F061C0F093240681
:103E1000E0932306DF91CF910895EA01CE17DF07E3
:103E2000E8F54A815B819E0141155105B1F7E90131
:103E3000FB83EA8349915991C40FD51FEC17FD0705
:103E400061F4808191810296840F951FE901998325
:103E50008883828193819B838A83F0E0E0E01296DD
:103E60008D919C9113970097B9F52D913C911197E5
:103E7000CD010296820F931F2091230630912406D4
:103E80002817390739F6309751F510922606109207
:103E90002506B0932406A0932306BCCFD383C28308
:103EA00040815181840F951FC817D90761F44E5F77
:103EB0005F4F88819981480F591F518340838A81C0
:103EC0009B81938382832115310509F0B0CFF09354
:103ED0002606E09325069ECFFD01DC01C0CF1382AC
:103EE0001282D7CFB0E0A0E0E8E7FFE10C94C11C5C
:103EF0008C01009751F4CB010E944D1E8C01C8012A
:103F0000CDB7DEB7E0E10C94DD1CFC01E60FF71F36
:103F10009C0122503109E217F30708F49DC0D90132
:103F2000CD91DC911197C617D70798F0C530D10510
:103F300030F3CE0104978617970708F3C61BD70BFB
:103F40002297C193D1936D937C93CF010E94E91E78
:103F5000D6CF5B01AC1ABD0A4C018C0E9D1EA09100
:103F60002506B0912606512C412CF12CE12C1097FE
:103F700031F580912306909124068815990509F062
:103F80005CC04616570608F058C080911A019091FF
:103F90001B01009741F48DB79EB740911E015091CF
:103FA0001F01841B950BE817F90708F055C0F09323
:103FB0002406E0932306F90171836083A0CF8D91DD
:103FC0009C91119712966C90129713967C90139770
:103FD000A815B90559F56C0142E0C40ED11CCA14EC
:103FE000DB0420F1AC014A195B09DA01129615973E
:103FF00080F06282738251834083D9016D937C93F8
:10400000E114F10471F0D7011396FC93EE9312972B
:1040100076CF22968C0F9D1FF90191838083F30147
:10402000EFCFF0932606E093250669CF4816590690
:1040300008F42C017D01D3019ACFCB010E944D1EC3
:104040007C01009749F0AE01B8010E942F20C80101
:104050000E94E91E870153CF10E000E050CFFB0122
:10406000DC0102C001900D9241505040D8F70895F4
:10407000FB01DC0101900D920020E1F70895FB01A6
:1040800051915523A9F0BF01DC014D914517411114
:10409000E1F759F4CD010190002049F04D91401510
:1040A0004111C9F3FB014111EFCF81E090E001978D
:1040B000089512E0C7E7D2E004C0FE010E94331E5B
:0C40C0002196C837D107C9F7F894FFCF4C
:1040CC00A202A202337313440000B0400000484126
:1040DC00415453202020202020000000270680007F
:1040EC00FD61DBF367B7BFE1FFF7FC60DAF266B6A0
:1040FC00BEE0FEF6FF02C61C3AB7B76F1DEE7C9F02
:10410C009C000000004403B602E30288031403F38E
:10411C000206030D0A0041542B4342414E443D22FA
:10412C004547534D5F4D4F4445220041542B43505E
:10413C004D533D224D45220041542B4346554E3D97
:10414C00300041542B4346554E3D310041542B43D6
:10415C004D47533D22003031323334353637383900
:10416C00003039343538313833333200494E464F0C
:10417C0052005354415254004F46460052554E0083
:10418C004D41494E5F464F52434500434845434BD2
:10419C005F47454E00434845434B544B004E4150FE
:1041AC00004E414D450050484F4E4532320050486C
:1041BC004F4E4533330053455454310052494E470A
:0841CC00004F4B0031302E00C2
:00000001FF
