:100000000C9478020C947E0C0C94570C0C94A50C58
:100010000C94A50C0C94A50C0C94A0020C94A002BA
:100020000C94A0020C94A0020C94A0020C94A002C8
:100030000C94A0020C94A0020C94A0020C94A002B8
:100040000C940D0C0C94A0020C94DC0B0C94B60BCD
:100050000C94A0020C94A0020C94A0020C94A00298
:100060000C94A0020C94A00200407A10F35A00A055
:10007000724E18090010A5D4E80000E87648170071
:1000800000E40B54020000CA9A3B000000E1F505B1
:10009000000080969800000040420F000000A086FB
:1000A00001000000102700000000E803000000002D
:1000B0006400000000000A000000000001000000D1
:1000C00000002C76D888DC674F0823DFC1DFAE59EB
:1000D000E1B1B796E5E3E453C63AE651997696E87E
:1000E000E6C28426EB898C9B62ED407C6FFCEFBC02
:1000F0009C9F40F2BAA56FA5F490055A2AF75C932D
:100100006B6CF9676DC11BFCE0E40D47FEF520E662
:10011000B500D0ED902E0300943577050080841E45
:10012000080000204E0A000000C80C333333330FA0
:10013000986E12831141EF8D2114893BE65516CF3D
:10014000FEE6DB18D1844B381BF77C1D901DA4BB49
:10015000E424203284725E228100C9F124ECA1E5FE
:100160003D2741444445442050484F4E4533207874
:10017000787878787878787878200A00000000001D
:10018000000000000000000000000000000000006F
:10019000000000000000000000000000000000005F
:1001A000000000000000000000000000000000004F
:1001B000000000000000000000000000000000003F
:1001C000000000000000000000000000000000002F
:1001D000000000000000000000000000000000001F
:1001E000000000000000000000000000000000000F
:1001F00000000000000000004144444544205048F5
:100200004F4E4532207878787878787878787820EA
:100210000A000000000000000000000000000000D4
:1002200000000000000000000000000000000000CE
:1002300000000000000000000000000000000000BE
:1002400000000000000000000000000000000000AE
:10025000000000000000000000000000000000009E
:10026000000000000000000000000000000000008E
:10027000000000000000000000000000000000007E
:1002800000000000000000000000000000005662B6
:1002900061747C7C446469656E7C7C546D707C7C8C
:1002A0004143200A31352E357C7C31352E357C7C1E
:1002B00035352E357C7C4E4F4B7C7C444F4F522045
:1002C0002D2D2D2D2D200A00000000000000000023
:1002D000000000000000000000000000000000001E
:1002E000000000000000000000000000000000000E
:1002F00000000000000000000000000000000000FE
:1003000000000000000000000000000000000000ED
:1003100000000000000000000000000000000000DD
:100320000000000043616E682062616F2E204D6105
:1003300074206469656E206C756F69200A00000086
:1003400000000000000000000000000000000000AD
:10035000000000000000000000000000000000009D
:10036000000000000000000000000000000000008D
:10037000000000000000000000000000000000007D
:10038000000000000000000000000000000000006D
:10039000000000000000000000000000000000005D
:1003A000000000000000000000000000000000004D
:1003B00000000000000000000000535441525400AF
:1003C000000000000000000000000000000000002D
:1003D000000000000000000000000000000000001D
:1003E000000000000000000000000000000000000D
:1003F00000000000000000000000000000000000FD
:1004000000000000000000000000000000000000EC
:1004100000000000000000000000000000000000DC
:1004200000000000000000000000000000000000CC
:1004300000000000000000000000000000000000BC
:1004400000000000000000000000000000000000AC
:10045000415426570041542B434E4D493D322C32D6
:100460000041542B434D47443D312C340041542B23
:10047000434D47463D310041542B4950523D39369A
:1004800030300041544530000000000024002700B7
:100490002A0000000000250028002B0000000000BA
:1004A00023002600290004040404040404040202B6
:1004B00002020202030303030303010204081020E3
:1004C00040800102040810200102040810200000EE
:1004D0000008000201000003040700000000000003
:1004E0000000BA0324038E02F8016201AF0C19194F
:1004F00011241FBECFEFD8E0DEBFCDBF26E0A8E0BD
:10050000B2E001C01D92AE31B207E1F712E0A0E007
:10051000B1E0EAEEF0E402C005900D92A830B10718
:10052000D9F712E0C7E7D2E004C02197FE010E948C
:10053000421EC637D107C9F70E94E70C0C94682009
:100540000C9400000895FC01248135816217730723
:1005500020F480819181009729F41092170287E19D
:1005600092E00895860F971F08950895AF92BF9265
:10057000CF92DF92EF92FF920F931F93CF93DF936F
:100580006C017B018B01040F151FEB015E01AE189E
:10059000BF08C017D10759F06991D601ED91FC91C0
:1005A0000190F081E02DC6010995892B79F7C501ED
:1005B000DF91CF911F910F91FF90EF90DF90CF903F
:1005C000BF90AF900895FC01538D448D252F30E0EE
:1005D000842F90E0821B930B541718F081509F4F8B
:1005E000089501970895FC01918D828D981759F017
:1005F000A28DAE0FBF2FB11D5D968C91928D9F5F26
:10060000928F90E008958FEF9FEF0895FC01918DF8
:10061000828D981731F0828DE80FF11D858D90E065
:1006200008958FEF9FEF0895FC01918D828D981BA7
:10063000892F90E0089581EF93E00E94140321E058
:10064000892B09F420E0822F0895FC01A48DA80FC6
:10065000B92FB11DA35EBE4F9C91848D8F5F848F97
:10066000A689B7899C93A089B1898C918370806495
:100670008C93938D848D981306C00288F389E02DA6
:1006800080818F7D808308950F931F93CF93DF9395
:10069000EC0181E0888F9B8D8C8D981318C0E889C0
:1006A000F989808185FF13C09FB7F894EE89FF898F
:1006B0006083E889F98980818370806480839FBF2B
:1006C00081E090E0DF91CF911F910F910895062F67
:1006D0001B8D1F5F8C8D81130CC00FB607FCFACFEA
:1006E000E889F989808185FFF5CFCE010E94250335
:1006F000F1CFEB8DEC0FFD2FF11DE35EFE4F00837C
:100700009FB7F8941B8FEA89FB8980818062D6CFDE
:10071000CF93DF93EC01888D8823B9F0AA89BB8938
:10072000E889F9898C9185FD03C0808186FD0DC023
:100730000FB607FCF7CF8C9185FFF2CF808185FF44
:10074000EDCFCE010E942503E9CFDF91CF9108952F
:10075000833081F028F4813099F08230A9F0089537
:100760008730A9F08830C9F08430B1F480918000DE
:100770008F7D03C0809180008F77809380000895E3
:1007800084B58F7784BD089584B58F7DFBCF80912C
:10079000B0008F778093B00008958091B0008F7D76
:1007A000F9CFCF93DF93282F30E0F901E253FB4FCD
:1007B0008491F901E654FB4FD491F901EA55FB4FBE
:1007C000C491CC23A1F081110E94A803EC2FF0E08A
:1007D000EE0FFF1FE456FB4FA591B491EC91ED2372
:1007E00081E090E009F480E0DF91CF91089580E00E
:1007F00090E0FACF1F93CF93DF93282F30E0F901D9
:10080000E253FB4F8491F901E654FB4FD491F90177
:10081000EA55FB4FC491CC23A9F0162F81110E94F9
:10082000A803EC2FF0E0EE0FFF1FEE56FB4FA59153
:10083000B4918FB7F894EC91111108C0D095DE23D4
:10084000DC938FBFDF91CF911F910895DE2BF8CFFE
:10085000CF93DF9390E0FC01E654FB4F24918A553F
:100860009B4FFC0184918823C9F090E0880F991F69
:10087000FC01E857FB4FA591B491FC01EE56FB4FEC
:10088000C591D49161110DC09FB7F8948C912095BA
:1008900082238C938881282328839FBFDF91CF9167
:1008A0000895623051F49FB7F8943C91822F80955F
:1008B00083238C93E8812E2BEFCF8FB7F894EC91A4
:1008C0002E2B2C938FBFEACF8E50806480937C00B8
:1008D00080917A00806480937A0080917A0086FD0E
:1008E000FCCF809178009091790008959FB7F8949B
:1008F00040911302509114026091150270911602FA
:1009000086B5A89B06C08F3F21F04F5F5F4F6F4FAA
:100910007F4F9FBF2227342F452F562F280F311D81
:10092000411D511DA5E0B0E00E94C31C08958F92A7
:100930009F92AF92BF92CF92DF92EF92FF920E946E
:1009400076044B015C0185E0C82ED12CE12CF12C02
:100950000E947604681979098A099B09683E7340E8
:1009600081059105A8F321E0C21AD108E108F10838
:1009700088EE880E83E0981EA11CB11CC114D1041E
:10098000E104F10429F7FF90EF90DF90CF90BF9042
:10099000AF909F908F9008952FB7F89460910F02B9
:1009A0007091100280911102909112022FBF089550
:1009B0000E94CC0480912202909123020196909390
:1009C000230280932202089530E020E04BE559E0B5
:1009D000A895FA013197F1F72F5F3F4F82179307E0
:1009E000BCF70895CF93DF93D82FC8E06D2F6170C7
:1009F00084E00E94FA03D69561E083E00E94FA0346
:100A000060E083E00E94FA03C15081F7DF91CF914B
:100A100008952F923F924F925F926F927F928F92A2
:100A20009F92AF92BF92CF92DF92EF92FF920F937D
:100A30001F93CF93DF934B015C011A01FA013397A7
:100A4000E033F10508F082C2E85DFA4F0C94421ED3
:100A50003806A60763056A06A60758052E07340759
:100A60003F07A607E20650075B0763076B0773079C
:100A70007B078307A6078B0793079B07A607A60795
:100A8000A607A607A607A607A607A607A607A607FE
:100A9000A607A607A607A607A607A607A607A607EE
:100AA000A607A607A607A607A607A607A60745073F
:100AB000A1E1EA2EF12C01E110E0C4E1D0E044E133
:100AC000C42ED12C31C020E030E040E251E40E943D
:100AD000811D0E94F31D6B012AE0269FA001279F24
:100AE000500D1124BA01550F880B990B0E948D1BD4
:100AF0009B01AC01C501B4010E94141D0E94F31DAD
:100B0000EB0120E030E040E251E4C501B4010E9475
:100B1000EC1B0E94F31DCB016AE070E00E942E1EC8
:100B20008C01F4E1EF2EF12C61E080E10E94FA03E8
:100B300061E081E10E94FA0360E082E10E94FA0331
:100B400061E083E10E94FA03F601E65DFE4FD0808A
:100B5000D0948D2D0E94F2048DE02816310419F4F2
:100B60008D2D0E94F2040E94970461E080E10E94B2
:100B7000FA0360E081E10E94FA0361E082E10E94F1
:100B8000FA0361E083E10E94FA03FE01E65DFE4F95
:100B9000D080D0948D2D0E94F20485E02816310477
:100BA00009F4E8C10CF0D9C183E02816310409F436
:100BB000E1C10E94970460E080E10E94FA0361E0D5
:100BC00081E10E94FA0361E082E10E94FA0361E0A0
:100BD00083E10E94FA03F801E65DFE4FC081C095F3
:100BE0008C2F0E94F2048CE02816310409F4C7C14E
:100BF0008DE02816310439F4F801E05EFE4F808163
:100C000080950E94F2040E94970461E080E10E94B6
:100C1000FA0361E081E10E94FA0361E082E10E944F
:100C2000FA0360E083E10E94FA03F701E65DFE4FFC
:100C3000C081C0958C2F0E94F2048DE028163104EB
:100C400019F48C2F0E94F204DF91CF911F910F9124
:100C5000FF90EF90DF90CF90BF90AF909F908F90DC
:100C60007F906F905F904F903F902F900C949704DF
:100C700020E030E040E251E40E94811D0E94F31D1B
:100C80006B012AE0269FA001279F500D1124BA0175
:100C9000550F880B990B0E948D1B9B01AC01C50160
:100CA000B4010E94141D0E94F31DEB0120E030E00E
:100CB00040E251E4C501B4010E94EC1B0E94F31D07
:100CC000CB016AE070E00E942E1E8C01ECE0EE2E5B
:100CD000F12C2ACF409008015090090160900A0140
:100CE00070900B0120E030E040E251E4C301B2011A
:100CF0000E94291E87FD5DC020E030E040E251E403
:100D0000C501B4010E94811D0E94F31D6B012AE000
:100D1000269FA001279F500D1124BA01550F880B63
:100D2000990B0E948D1B9B01AC01C501B4010E946F
:100D3000141D0E94F31DEB0120E030E040E251E47D
:100D4000C501B4010E94EC1B0E94F31DCB016AE0B7
:100D500070E00E942E1E8C0173E1E72EF12C20E042
:100D600030E040E251E4C301B2010E94861B87FFDC
:100D7000DBCEC501B4010E94F31D0AE010E0CB01F7
:100D8000B8010E942E1EEC0120E030E040E251E468
:100D9000C501B4010E94EC1B0E94F31DCB01B801F8
:100DA0000E942E1E8C0163E1E62EF12CD12CC12C69
:100DB000BBCEF12CE12C10E000E0D0E0C0E0D12C63
:100DC000C12CCDCF20E030E048EC52E40E94811DE0
:100DD0000E94F31D6B0124E6269FA001279F500D62
:100DE0001124BA01550F880B990B0E948D1B9B0192
:100DF000AC01C501B4010E94141D2B013C0120E08F
:100E000030E040E251E40E94811D0E94F31DEB019D
:100E10002AE0269FA001279F500D1124BA01550FEB
:100E2000880B990B0E948D1B9B01AC01C301B20181
:100E30000E94141D0E94F31D8B0120E030E040E26F
:100E400051E4C501B4010E94EC1B0E94F31DCB01CB
:100E50006AE070E00E942E1E7C0166CE52E1E52E13
:100E6000F12C02E110E029CE31E1E32EF12C01E179
:100E700010E0CCE0D0E09CE0C92ED12C55CE22E190
:100E8000E22EF12C02E110E0F4CFCBE0EC2EF12CBD
:100E90000BE010E0CBE0D0E08BE0C82ED12C44CEAC
:100EA000BAE0EB2EF12C0AE010E0C1E0D0E045E121
:100EB000C42ED12C39CEAAE0EA2EF12C0AE010E0A3
:100EC000C2E0D0E0F4CFFAE0EF2EF12C0AE010E01F
:100ED000C3E0D0E0ECCFEAE0EE2EF12C0AE010E027
:100EE000C4E0D0E0E4CF7AE0E72EF12C0AE010E095
:100EF000C5E0D0E0DCCF6AE0E62EF12C0AE010E09D
:100F0000C6E0D0E0D4CF5AE0E52EF12C0AE010E0A4
:100F1000C7E0D0E0CCCF7A01EA0103E110E023E1A1
:100F2000C22ED12C01CE35E1E32EF12C05E110E0EB
:100F3000C6E1D0E0F4CF8FE0E82EF12C0FE010E016
:100F4000CFE0D0E09FE0C92ED12CEECDF12CE12CEA
:100F500010E000E0D0E0C0E029CF86E028163104A0
:100F600049F08DE02816310409F023CE8D2D0E9422
:100F7000F2041FCEC05EDE4F88818095F8CF8C2FA3
:100F800040CEFC0101900020E9F73197AF01481BEA
:100F9000590BBC0181EF93E00C94B602CF93DF9321
:100FA0000E94C107EC0183E591E00E94C1078C0F0C
:100FB0009D1FDF91CF9108950F931F93CF93DF93E0
:100FC0008C01D0E0C0E0F801EC0FFD1F64916623B6
:100FD00041F081EF93E00E944403892B11F02196A8
:100FE000F2CF83E591E00E94C1078C0F9D1FDF9136
:100FF000CF911F910F910895CF93DF9310923F02ED
:10100000109240021092410210924202C1EFD3E0CE
:10101000E889F98982E08083EC85FD851082EE8580
:10102000FF858BE98083188EEC89FD8986E08083BB
:10103000EA89FB89808180618083EA89FB898081DC
:1010400088608083EA89FB89808180688083EA895F
:10105000FB8980818F7D808383E894E00E94DC0798
:1010600084EF91E00E94E40487E794E00E94DC07AB
:1010700084EF91E00E94E4048DE694E00E94DC0796
:1010800084EF91E00E94E40481E694E00E94DC0792
:1010900084EF91E00E94E40485E594E00E94DC077F
:1010A00084EF91E00E94E40486E591E00E94CE077F
:1010B00084EF91E00E94E4048BE691E00E94CE0769
:1010C00084EF91E00E94E40480E594E00E94DC0754
:1010D00084EF91E00E94E40488E791E00E94CE074B
:1010E00084EF91E00E94E40482E891E00E94CE0740
:1010F00084EF91E00E94E40482E390E0A0E0B0E09D
:101100008C839D83AE83BF83DF91CF91089581EF60
:1011100093E00E941403892B79F184E190E00E940E
:10112000E40481EF93E00E94F3028A3081F38D3072
:1011300029F410920B0210920A02E9CF20910A02C0
:1011400030910B022F3F310564F4A9014F5F5F4FCF
:1011500050930B0240930A022F503D4FF9018083B8
:10116000D6CF10920B0210920A0265E571E081EF72
:1011700092E00E944720CBCF08950E941B0381116B
:101180000C9487080895AF92BF92CF92DF92EF92AE
:10119000FF920F931F93CF93DF93DC01CD90DC90F0
:1011A0001197C114D10439F01496CD91DC918C01C2
:1011B0007601209761F4DF91CF911F910F91FF90FD
:1011C000EF90DF90CF90BF90AF90089575015701D9
:1011D000BFEFAB1ABB0AF7018081082E000C990BF8
:1011E0000E947D1B892B91F72197CC0DDD1D8881F5
:1011F000082E000C990B0E947D1B892B29F0CE151F
:10120000DF0510F02197F3CFAE014F5F5F4F4E190E
:101210005F09D80115965C934E931497CE14DF04A2
:1012200020F4B701C6010E943E20D801ED91FC9147
:10123000119714968D919C91E80FF91F1082BBCFE6
:101240000F931F93CF93DF938C01EB01FC018081FF
:1012500091810097E1F06881798161157105A9F0AC
:10126000428153812C813D814217530770F00E94C7
:1012700047208C819D81F801958384831D821C8287
:10128000DF91CF911F910F9108950E94F81E8881E0
:101290009981F801918380838A819B8193838283E2
:1012A0008C819D8195838483198218821B821A8286
:1012B000E5CFCF93DF93EC0188819981009711F0FE
:1012C0000E94F81E198218821D821C821B821A82BB
:1012D000DF91CF910895FC0180819181009711F0F9
:1012E0000C94F81E08950F931F93CF93DF93EC0196
:1012F00088819981009759F02A813B812617370709
:1013000030F081E0DF91CF911F910F9108958B0113
:101310006F5F7F4F0E94811F009759F099838883E8
:101320001B830A832C813D81232B59F7FC011082FA
:10133000E8CF80E0E7CFEF92FF920F931F93CF9318
:10134000DF93EC017B018A01BA010E9473098111CC
:101350000BC0CE010E945909CE01DF91CF911F91A0
:101360000F91FF90EF9008951D830C83B701888142
:1013700099810E944720F0CFEF92FF920F931F9325
:10138000CF93DF93CDB7DEB7A1970FB6F894DEBF4A
:101390000FBECDBF7C01CB01BA01F70111821082D3
:1013A00013821282158214828E010F5F1F4F22E07A
:1013B00044E00E9421190097C9F0FC01019000202F
:1013C000E9F73197AF01481B590BBC01C7010E94D7
:1013D0009B09A1960FB6F894DEBF0FBECDBFDF917B
:1013E000CF911F910F91FF90EF900895C7010E9438
:1013F0005909EFCFFB01DC0111961C921E92139646
:101400001C921E92129715961C921E921497861784
:10141000970749F0608171816115710521F0448160
:1014200055810C949B090895FC011182108213824E
:101430001282158214826115710551F0FB01019031
:101440000020E9F73197AF01461B570B0C949B091D
:101450000895AF92BF92CF92DF92EF92FF920F93D7
:101460001F93CF93DF938C017B016A01590165E5DE
:1014700071E00E94140AD7011496CD91DC91CC162C
:10148000DD0620F5AC16BD0608F4E501D701ED91A7
:10149000FC911197EC0FFD1FB08010826D917C9133
:1014A0006C0D7D1D61157105E9F0FB0101900020B7
:1014B000E9F73197AF01461B570BC8010E949B0902
:1014C000F70180819181C80FD91FB882C801DF91CF
:1014D000CF911F910F91FF90EF90DF90CF90BF9031
:1014E000AF900895C8010E945909EACFEF92FF9288
:1014F0000F931F93CF93DF9300D000D000D0CDB7D0
:10150000DEB78C0165E571E081EF92E00E94472033
:101510006CE871E0CE0101960E94140AF801E080A7
:10152000F180E114F10409F478C0048115810115FA
:101530001105B9F08D819E81080F191FB801CE01E8
:1015400001960E947309882309F467C029813A81B2
:101550008D819E81B701820F931F0E9447201E83B9
:101560000D830D811E810F5F1F4FB801CE010196C3
:101570000E947309811156C0CE0101960E9459093B
:101580004D815E8169817A8181EF93E00E94B6028C
:1015900083E591E00E94C107CE0101960E946B098C
:1015A00080ED97E00E94E40481EF93E00E948803BD
:1015B0000BE512E0F80161918F0181EF93E00E9449
:1015C0004403F2E0013F1F07A9F781EF93E00E9477
:1015D000880365E571E081EF92E00E94472083E592
:1015E00091E00E94C1076AE181EF93E00E94440309
:1015F00083E591E00E94C1078CEA9DE00E94E4042B
:1016000026960FB6F894DEBF0FBECDBFDF91CF9107
:101610001F910F91FF90EF900895CE0101960E94C7
:1016200059099FCF29813A818D819E8164E971E0BA
:10163000820F931F0E9447201E830D83A1CFCF935B
:10164000DF93CDB7DEB72C970FB6F894DEBF0FBE91
:10165000CDBF64E176E0CE0101960E94FA09CE0189
:1016600001960E94760ACE0101960E946B09809134
:101670005A02882381F180E197E20E94E4041092EB
:10168000590266E971E0CE0107960E94140A6FE4E0
:1016900072E0CE0101960E94140ABE016F5F7F4F77
:1016A000CE0107960E942009CE0101960E946B0987
:1016B000BE01695F7F4FCE0101960E94FA09CE01FB
:1016C00001960E94760ACE0101960E946B09CE0116
:1016D00007960E946B0980914E02882381F180E178
:1016E00097E20E94E40410924D0266E971E0CE0197
:1016F00007960E94140A63E472E0CE0101960E94EC
:10170000140ABE016F5F7F4FCE0107960E94200929
:10171000CE0101960E946B09BE01695F7F4FCE0129
:1017200001960E94FA09CE0101960E94760ACE0126
:1017300001960E946B09CE0107960E946B090E94D8
:10174000CC0460933F0270934002809341029093D7
:1017500042022C960FB6F894DEBF0FBECDBFDF91CC
:10176000CF9108950C94B51C0C94AD1C1F920F9250
:101770000FB60F9211242F933F934F935F936F9364
:101780007F938F939F93AF93BF93EF93FF9381EFDB
:1017900093E00E942503FF91EF91BF91AF919F913C
:1017A0008F917F916F915F914F913F912F910F900A
:1017B0000FBE0F901F9018951F920F920FB60F92A9
:1017C00011242F938F939F93EF93FF93E091010444
:1017D000F09102048081E0910704F091080482FDF9
:1017E0001AC0908180910A048F5F20910B048217A8
:1017F00041F0E0910A04F0E0EF50FC4F958F8093A8
:101800000A04FF91EF919F918F912F910F900FBE3E
:101810000F901F9018958081F4CF1F920F920FB6F2
:101820000F9211242F933F938F939F93AF93BF9366
:1018300080910F0290911002A0911102B0911202BA
:1018400030910E022DE2230F2D3758F50196A11D80
:10185000B11D20930E0280930F0290931002A0936B
:101860001102B09312028091130290911402A09180
:101870001502B09116020196A11DB11D80931302AD
:1018800090931402A0931502B0931602BF91AF91EA
:101890009F918F913F912F910F900FBE0F901F90AE
:1018A000189520EB230F0296A11DB11DD2CF1F92D8
:1018B0000F920FB60F9211242F933F934F935F9384
:1018C0006F937F938F939F93AF93BF93EF93FF9308
:1018D000E0910201F09103010995FF91EF91BF9111
:1018E000AF919F918F917F916F915F914F913F91B8
:1018F0002F910F900FBE0F901F9018951F920F926F
:101900000FB60F9211242F933F934F935F936F93D2
:101910007F938F939F93AF93BF93EF93FF93E09148
:101920000001F09101010995FF91EF91BF91AF91F5
:101930009F918F917F916F915F914F913F912F91E7
:101940000F900FBE0F901F9018951F920F920FB619
:101950000F9211240F900FBE0F901F901895E1EF7A
:10196000F3E01382128288EE93E0A0E0B0E084837B
:101970009583A683B78385E491E09183808385EC8A
:1019800090E09587848784EC90E09787868780EC49
:1019900090E0918B808B81EC90E0938B828B82EC3A
:1019A00090E0958B848B86EC90E0978B868B118EE4
:1019B000128E138E148E61EA71E084E196E00E942B
:1019C000140A65E571E08EE096E00C94140ACF935A
:1019D000DF93CDB7DEB766970FB6F894DEBF0FBEC4
:1019E000CDBF789484B5826084BD84B5816084BDA8
:1019F00085B5826085BD85B5816085BD80916E00AD
:101A0000816080936E0010928100809181008260DD
:101A1000809381008091810081608093810080911A
:101A200080008160809380008091B1008460809309
:101A3000B1008091B00081608093B00080917A0005
:101A4000846080937A0080917A00826080937A002B
:101A500080917A008E7F80937A0080917A008068EE
:101A600080937A001092C10081E080932F028093CE
:101A70002E0280932402809331028093320280935D
:101A8000250210922302109222021092210210923B
:101A9000200210925A0210924E021092300281E0FF
:101AA00090E090933E0280933D0261E080E10E94CD
:101AB000280461E081E10E94280461E082E10E9443
:101AC000280461E083E10E94280461E084E00E9430
:101AD000280461E083E00E94280461E084E00E9421
:101AE000280461E083E00E94280461E088E00E940D
:101AF000280461E08AE00E94280461E089E00E94F5
:101B0000280460E084E10E94280460E085E10E94EE
:101B1000280460E082E00E94280462E085E00E94E0
:101B2000280462E08DE00E94280462E08CE00E94BC
:101B3000280462E08BE00E94280490E080E00E948C
:101B4000B40BE82E82E090E00E94B40BF82E84E003
:101B500090E00E94B40B082F86E090E00E94B40B46
:101B6000182F6E2DEE0C770B880B990B0E948D1B96
:101B70002B013C01409226025092270260922802DB
:101B8000709229026F2DFF0C770B880B990B0E9426
:101B90008D1B4B015C0180922A0290922B02A09235
:101BA0002C02B0922D02602F000F770B880B990B3F
:101BB0000E948D1B6B017C01C0921C02D0921D0201
:101BC000E0921E02F0921F02612F110F770B880B1B
:101BD000990B0E948D1B6B8B7C8B8D8B9E8B6093E6
:101BE00018027093190280931A0290931B0220E04E
:101BF00030E040EA50E4C301B2010E94861B87FF37
:101C00000CC080E090E0A0E2B1E4809326029093C3
:101C10002702A0932802B093290220E030E040EA96
:101C200050E4C501B4010E94861B87FF0CC080E010
:101C300090E0A0E7B1E480932A0290932B02A09356
:101C40002C02B0932D0220E030E040EA50E4C701BE
:101C5000B6010E94861B87FF0CC080E090E0A0E2E6
:101C6000B1E480931C0290931D02A0931E02B093D6
:101C70001F0220E030E040EA50E46B897C898D89C6
:101C80009E890E94861B87FF0CC080E090E0A0E741
:101C9000B1E48093180290931902A0931A02B093B2
:101CA0001B028EE190E00E94B40B80934F028033C0
:101CB00009F07AC380E290E00E94B40B8093500256
:101CC00082E290E00E94B40B8093510284E290E0A3
:101CD0000E94B40B8093520286E290E00E94B40B03
:101CE0008093530288E290E00E94B40B80935402E8
:101CF0008AE290E00E94B40B809355028CE290E05F
:101D00000E94B40B809356028EE290E00E94B40BC6
:101D10008093570280E390E00E94B40B80935802B6
:101D200081E080935A0288E390E00E94B40B809394
:101D30004302803309F03FC38AE390E00E94B40B72
:101D4000809344028CE390E00E94B40B80934502A0
:101D50008EE390E00E94B40B8093460280E490E012
:101D60000E94B40B8093470282E490E00E94B40B7F
:101D70008093480284E490E00E94B40B809349026F
:101D800086E490E00E94B40B80934A0288E490E0DD
:101D90000E94B40B80934B028AE490E00E94B40B43
:101DA00080934C0281E080934E0280E29EE40E9488
:101DB000E4040E94FC0733E0332E44244A94542C5C
:101DC00052EA652E52E0752E11E004E022E2E22E86
:101DD000F12C8DE00E94D103892BD1F496E4C92E19
:101DE000D12C609126027091270280912802909157
:101DF000290249E050E00E94090521E0C21AD108F9
:101E000081F782E08093300210922102109220022A
:101E1000809130028823B1F0823009F44DC30CF078
:101E2000D3C2813009F4BAC380912002909121027B
:101E3000019690932102809320028039914044F3CF
:101E40001092300285E10E946404BC01990F880B56
:101E5000990B0E948D1B27E73EEB4FE95DEB0E943B
:101E6000EC1B23E333E34BE452E40E94151D609323
:101E7000040170930501809306019093070184E1AA
:101E80000E946404BC01990F880B990B0E948D1B62
:101E90002CEE31E548EB5DE30E94EC1B2CEE31E5C6
:101EA00048EB5EE30E94151D60930C0170930D01D9
:101EB00080930E0190930F018FE00E946404BC0197
:101EC000990F880B990B0E948D1B2EE53AEB49E088
:101ED0005EE30E94EC1B26E636E646EE5FE30E94D8
:101EE000141D609308017093090180930A01909377
:101EF0000B010E94CC045092230240922202E8ED92
:101F0000F4E0F0930101E0930001809169008360A7
:101F100080936900E89A4AE0C42ED12C8091220275
:101F2000909123020A9744F484EF91E00E94E40424
:101F3000F1E0CF1AD10891F7E89870920101609210
:101F4000000180912202909123020B970CF40AC4A5
:101F50001093320285E00E94D103892B09F005C459
:101F60001092310260912A0270912B0280912C0212
:101F700090912D0280900C0190900D01A0900E0187
:101F8000B0900F0120912E02222309F4F1C39B018E
:101F9000AC01C501B4010E94291E181674F0A501F8
:101FA00094016091260270912702809128029091FD
:101FB00029020E94291E181614F410922E028090F5
:101FC000040190900501A0900601B0900701809156
:101FD0002F02882309F4F0C320E030E044E352E408
:101FE000C501B4010E94291E181614F410922F0284
:101FF000C090320280912502882341F0C11006C0B2
:1020000010922502F0923E02E0923D02809125025C
:10201000811108C0CC2031F010932502F0923E02CD
:10202000E0923D0280912E0290912402911108C00D
:10203000882331F010932402F0923E02E0923D0298
:1020400090912402992341F0811106C0109224023C
:10205000F0923E02E0923D0220E030E0A901C5018D
:10206000B4010E94861B87FF08C0109204011092E1
:1020700005011092060110920701D0903002D11094
:1020800029C032E3A32EB12CCC2009F4A3C3609164
:1020900008017091090180910A0190910B0146E1BC
:1020A00050E00E94090521E0A21AB10881F722E35D
:1020B000A22EB12C609108017091090180910A0152
:1020C00090910B0146E050E00E94090591E0A91AA9
:1020D000B10881F780912E0261E0811160E089E012
:1020E0000E94FA0380912F0261E0811101C060E03B
:1020F00088E00E94FA03D11013C092E3A92EB12CFC
:1021000060910C0170910D0180910E0190910F0171
:1021100045E050E00E940905A1E0AA1AB10881F744
:102120008091320260E0811161E08AE00E94FA034E
:10213000D11013C082E3C82ED12C6091040170919C
:102140000501809106019091070143E050E00E9453
:102150000905B1E0CB1AD10881F780913D02909139
:102160003E028432910509F458C38632910509F480
:1021700099C3829709F0EBC010923F02109240027F
:1021800010924102109242021092390210923A02C9
:1021900010923B0210923C02B6EECB2EB4E0DB2E46
:1021A000F601659174918BE592E00E943F19409190
:1021B0000C0150910D0160910E0170910F01CE0143
:1021C0000D960E94BC09409108015091090160914F
:1021D0000A0170910B01CE0107960E94BC09409143
:1021E0000401509105016091060170910701CE0133
:1021F00001960E94BC09F601659174918BE592E00D
:102200000E943F1970E060E0CE010D960E94A3028B
:10221000FC0180818093710261E070E0CE010D9637
:102220000E94A302DC018C918093720262E070E054
:10223000CE010D960E94A302FC018081809373025F
:1022400063E070E0CE010D960E94A302DC018C9148
:102250008093740270E060E0CE0107960E94A302B2
:10226000FC0180818093770261E070E0CE010796E7
:102270000E94A302DC018C918093780262E070E0FE
:10228000CE0107960E94A302FC018081809379020F
:1022900063E070E0CE0107960E94A302DC018C91FE
:1022A00080937A0270E060E0CE0101960E94A30262
:1022B000FC01808180937D0261E070E0CE01019697
:1022C0000E94A302DC018C9180937E0262E070E0A8
:1022D000CE0101960E94A302FC01808180937F02BF
:1022E00063E070E0CE0101960E94A302DC018C91B4
:1022F0008093800280913202882309F47CC280E2BC
:102300008093830280913102882309F476C28FE49E
:1023100080938D0280E580938E0285E480938F0206
:102320008EE480939002CE0101960E946B09CE014B
:1023300007960E946B09CE010D960E946B090E94C0
:102340001F0B83E290E090933E0280933D020E9437
:1023500087086CEA71E081EF92E00E944E20892BA1
:1023600009F4DFC2F0923E02E0923D0265E571E0C1
:1023700081EF92E00E94472010923F0210924002AB
:1023800010924102109242021092390210923A02C7
:1023900010923B0210923C020E941B03882309F416
:1023A00018CD0E94870810CD65E571E08FE492E0BA
:1023B0000E944720B8CC65E571E083E492E00E947A
:1023C000472010924E02F1CC833009F459C1843079
:1023D00009F02ACD8CE00E94D103892BB1F420E0D2
:1023E00030E040E85FE360911C0270911D02809133
:1023F0001E0290911F020E94151D60931C02709393
:102400001D0280931E0290931F028BE00E94D10355
:10241000892BB1F420E030E040E85FE360911C02DA
:1024200070911D0280911E0290911F020E94141D46
:1024300060931C0270931D0280931E0290931F02F2
:102440008DE00E94D103892B19F560911C027091D7
:102450001D0280911E0290911F020E94FA1D84E0CD
:1024600090E00E94B20B30923002E2E3CE2ED12CEB
:1024700060911C0270911D0280911E0290911F02BA
:102480004AE050E00E940905E1E0CE1AD10881F748
:102490007FE0C72ED12C60911C0270911D028091AB
:1024A0001E0290911F0243E050E00E940905F1E0F6
:1024B000CF1AD10881F7B8CC8CE00E94D103892BC8
:1024C000B1F420E030E040E85FE3609126027091D3
:1024D000270280912802909129020E94151D609385
:1024E00026027093270280932802909329028BE0A2
:1024F0000E94D103892BB1F420E030E040E85FE393
:102500006091260270912702809128029091290201
:102510000E94141D60932602709327028093280264
:10252000909329028DE00E94D103892B19F56091C7
:1025300026027091270280912802909129020E9420
:10254000FA1D90E080E00E94B20B1093300282E30B
:10255000C82ED12C6091260270912702809128020A
:102560009091290248E050E00E94090581E0C81AD4
:10257000D10881F7BFE0CB2ED12C6091260270915B
:102580002702809128029091290245E050E00E94A4
:10259000090591E0C91AD10881F746CC8CE00E9468
:1025A000D103892BB1F420E030E040E85FE3609193
:1025B0002A0270912B0280912C0290912D020E9490
:1025C000151D60932A0270932B0280932C02909326
:1025D0002D028BE00E94D103892BB1F420E030E082
:1025E00040E85FE360912A0270912B0280912C02F7
:1025F00090912D020E94141D60932A0270932B0269
:1026000080932C0290932D028DE00E94D103892BA0
:1026100019F560912A0270912B0280912C02909101
:102620002D020E94FA1D82E090E00E94B20B0093FE
:102630003002A2E3CA2ED12C60912A0270912B02A3
:1026400080912C0290912D024BE050E00E940905F0
:10265000A1E0CA1AD10881F7FFE0CF2ED12C6091FA
:102660002A0270912B0280912C0290912D0245E05C
:1026700050E00E940905B1E0CB1AD10881F7D4CB14
:102680008CE00E94D103892BB1F420E030E040E8D7
:102690005FE3609118027091190280911A02909183
:1026A0001B020E94151D60931802709319028093FB
:1026B0001A0290931B028BE00E94D103892BB1F484
:1026C00020E030E040E85FE3609118027091190269
:1026D00080911A0290911B020E94141D60931802AF
:1026E0007093190280931A0290931B028DE00E944E
:1026F000D103892B19F5609118027091190280910C
:102700001A0290911B020E94FA1D86E090E00E943E
:10271000B20B1092300262E3C62ED12C60911802E7
:102720007091190280911A0290911B0242E350E0CD
:102730000E94090521E0C21AD10881F75FE0C52E89
:10274000D12C609118027091190280911A02909117
:102750001B0243E050E00E94090581E0C81AD1083D
:1027600081F762CB10923202F5CB10933102FACB93
:1027700020E030E040E85FE30E94141DA5019401D1
:102780000E94291E87FD1BCC20E030E040E85FE37B
:10279000609126027091270280912802909129026F
:1027A0000E94151DA50194010E94861B18160CF4A9
:1027B00006CC10932E0203CC20E030E04CE252E431
:1027C000C501B4010E94861B18160CF411CC10939D
:1027D0002F020ECC609108017091090180910A01CD
:1027E00090910B0147E150E00E94090581E0A81A91
:1027F000B10881F75CCC8EE483CD83E480938D02B5
:102800008CE480938E028FE480938F0283E5809323
:10281000900285E48093910286CD10923F0210923F
:10282000400210924102109242021092390210921C
:102830003A0210923B0210923C02E8EEF4E06591FD
:1028400074918BE592E00E943F1980914F02809332
:1028500068028091500280936902809151028093B6
:102860006A028091520280936B028091530280939E
:102870006C028091540280936D0280915502809386
:102880006E028091560280936F028091570280936E
:10289000700280915802809371020E941F0B85E2A2
:1028A00090E051CD10923F021092400210924102EE
:1028B000109242021092390210923A0210923B0298
:1028C00010923C02EAEEF4E0659174918BE592E09F
:1028D0000E943F19809143028093680280914402D4
:1028E000809369028091450280936A02809146023A
:1028F00080936B028091470280936C028091480222
:1029000080936D028091490280936E0280914A0209
:1029100080936F0280914B028093700280914C02F1
:10292000BACF62EB71E081EF92E00E944E20892BDA
:1029300039F065E571E081EF92E00E9447202CCDEF
:1029400068EB71E081EF92E00E944E20892B89F7BD
:102950006CEB71E081EF92E00E944E20892B49F7E9
:1029600060EC71E081EF92E00E944E20892B09F724
:102970006BEC71E081EF92E00E944E20892BC9F64A
:1029800065ED71E081EF92E00E944E20892B89F67F
:102990006DED71E081EF92E00E944E20009731F1E1
:1029A000BC01CE0107960E94140A21E130E043E009
:1029B00050E0BE01695F7F4FCE0101960E94290A57
:1029C000BE016F5F7F4F8EE096E00E942009CE012E
:1029D00001960E946B0965E571E081EF92E00E942B
:1029E0004720CE0107960E946B09D6CC6AED71E0B4
:1029F00081EF92E00E944E20009731F0BC018BE500
:102A000092E00E94472095CF61EE71E081EF92E065
:102A10000E944E20009709F45CC0BC01CE010796CD
:102A20000E94140A2BE030E044E050E0BE01695FF0
:102A30007F4FCE0101960E94290AA0E1CA2EA1E093
:102A4000DA2EB12CA12CB501CE0101960E94A30271
:102A5000FC018081D6018D936D01BFEFAB1ABB0ADB
:102A6000E7E0AE16B10479F76091100188E090E0DC
:102A70000E94B20B609111018AE090E00E94B20BBB
:102A8000609112018CE090E00E94B20B6091130102
:102A90008EE090E00E94B20B6091140180E190E022
:102AA0000E94B20B6091150182E190E00E94B20B8E
:102AB0006091160184E190E00E94B20B65E571E03F
:102AC00081EF92E00E944720CE0101960E946B099F
:102AD00088CF66EE71E081EF92E00E944E20009771
:102AE00009F474C0BC01CE0107960E94140A21E1CA
:102AF00030E047E050E0BE01695F7F4FCE010196B4
:102B00000E94290ACE0101960E94C30888E893E139
:102B10000E94E404FFE4CF2EF2E0DF2EB12CA12CC2
:102B2000B501CE0101960E94A302DC018C91F60151
:102B300081936F01FFEFAF1ABF0A2AE0A216B1041A
:102B400079F760914F028EE190E00E94B20B6091A4
:102B5000500280E290E00E94B20B6091510282E24A
:102B600090E00E94B20B6091520284E290E00E94D9
:102B7000B20B6091530286E290E00E94B20B60912A
:102B8000540288E290E00E94B20B609155028AE202
:102B900090E00E94B20B609156028CE290E00E949D
:102BA000B20B609157028EE290E00E94B20B6091EE
:102BB000580280E390E00E94B20B10935A0284E224
:102BC00090E090933E0280933D0278CF6EEE71E0EC
:102BD00081EF92E00E944E20009709F46CC0BC0186
:102BE000CE0107960E94140A21E130E047E050E050
:102BF000BE01695F7F4FCE0101960E94290ACE0176
:102C000001960E94C308E3E4AE2EE2E0BE2ED12C72
:102C1000C12CB601CE0101960E94A302DC018C9169
:102C2000F50181935F01FFEFCF1ADF0A2AE0C21698
:102C3000D10479F76091430288E390E00E94B20BDF
:102C4000609144028AE390E00E94B20B60914502D9
:102C50008CE390E00E94B20B609146028EE390E01C
:102C60000E94B20B6091470280E490E00E94B20B98
:102C70006091480282E490E00E94B20B60914902A8
:102C800084E490E00E94B20B60914A0286E490E0F6
:102C90000E94B20B60914B0288E490E00E94B20B5C
:102CA00060914C028AE490E00E94B20B10934E02B5
:102CB00086E290E086CF66EF71E081EF92E00E94BD
:102CC0004E20892B09F035CE6CEF71E081EF92E058
:102CD0000E944E20892B09F02CCE0E94CC046093D8
:102CE00035027093360280933702909338028090B9
:102CF000390290903A02A0903B02B0903C028114BD
:102D00009104A104B10409F44BC0E0913D02F0919B
:102D10003E023297E931F10508F042C0EE56F94E15
:102D20000C94421EAB16D0163D17D0167417D01651
:102D3000AB17D016E217D0161918D0165018D016A7
:102D4000D016D016D016D016D016D016D016D01653
:102D5000D016D0168718681979098A099B0961323B
:102D60007E448105910508F05EC061E072E081EF6C
:102D700092E00E944E20892B09F40ECB83E090E074
:102D800090933E0280933D021092340210923302DF
:102D90001092390210923A0210923B0210923C02B9
:102DA00080913F0290914002A0914102B091420275
:102DB0000097A105B10509F4EFCA20913D023091B9
:102DC0003E022532310509F4F9C12732310509F4F3
:102DD00015C22332310509F0DFCA40913502509106
:102DE00036026091370270913802481B590B6A0B0A
:102DF0007B0B403355476105710508F0C1C161E0A7
:102E000072E081EF92E00E944E20892B09F4C4CA3F
:102E100081E090E090933E0280933D021092340254
:102E200010923302C2C181E090E090933E02809301
:102E30003D028091330290913402019690933402C6
:102E40008093330203970CF4A3CF78ECC72ED12CD8
:102E50004EE050E061EE7AEF87EC92E40E940905C3
:102E6000B1E0CB1AD108A1F70E94FC0781E090E005
:102E700090933E0280933D028BCF681979098A09AD
:102E80009B0961327E448105910560F461E072E046
:102E900081EF92E00E944E20892B09F47DCA85E0E3
:102EA00090E06ECF83E090E090933E0280933D02ED
:102EB0008091330290913402019690933402809372
:102EC000330203970CF464CF68ECC62ED12C4FE08C
:102ED00050E061EE7AEF87EC92E40E940905F1E0A0
:102EE000CF1AD108A1F7C0CF681979098A099B09BF
:102EF00061327E448105910560F461E072E081EF0A
:102F000092E00E944E20892B09F446CA87E090E0A7
:102F100037CF85E090E090933E0280933D02809110
:102F200033029091340201969093340280933302DD
:102F300003970CF431CA58ECC52ED12C40E150E077
:102F400061EE7AEF87EC92E40E94090581E0C81AED
:102F5000D108A1F789CF681979098A099B096132DB
:102F60007E448105910560F461E072E081EF92E0BA
:102F70000E944E20892B09F40FCA89E090E000CF0F
:102F800087E090E090933E0280933D02809133026F
:102F90009091340201969093340280933302039708
:102FA0000CF4F6CE48ECC42ED12C41E150E061EE99
:102FB0007AEF87EC92E40E940905B1E0CB1AD108C0
:102FC000A1F752CF681979098A099B0961327E44B9
:102FD0008105910560F461E072E081EF92E00E946A
:102FE0004E20892B09F4D8C98BE090E0C9CE89E046
:102FF00090E090933E0280933D0280913302909145
:1030000034020196909334028093330203970CF4B8
:10301000BFCE38ECC32ED12C42E150E061EE7AEF06
:1030200087EC92E40E940905F1E0CF1AD108A1F7DC
:103030001BCF681979098A099B0961327E44810591
:10304000910560F461E072E081EF92E00E944E2011
:10305000892B09F4A1C98DE090E092CE8BE090E03D
:1030600090933E0280933D0280913302909134020E
:103070000196909334028093330203970CF488CE28
:1030800028ECC22ED12C43E150E061EE7AEF87ECC0
:1030900092E40E94090581E0C81AD108A1F7E4CEA4
:1030A000681979098A099B0961327E448105910575
:1030B00060F464E072E081EF92E00E944E20892B80
:1030C00009F46AC984E190E05BCE8DE090E09093D2
:1030D0003E0280933D02809133029091340201962A
:1030E000909334028093330203970CF455C998EC03
:1030F000C92ED12C44E150E061EE7AEF87EC92E4E6
:103100000E940905B1E0CB1AD108A1F7ADCE68192C
:1031100079098A099B0960327E448105910570F422
:1031200061E072E081EF92E00E944E20892B09F469
:1031300033C90E94CC0485E190E022CE81E090E08A
:1031400090933E0280933D0280913302909134022D
:103150000196909334028093330203970CF41CC9B8
:1031600088ECC82ED12C45E150E061EE7AEF87EC77
:1031700092E40E940905F1E0CF1AD108A1F774CEBC
:10318000F0923E02E0923D0280913302909134022F
:1031900001969093340280933302029734F00E9498
:1031A000FC07F0923E02E0923D0210923F02109224
:1031B00040021092410210924202EEC84091350244
:1031C000509136026091370270913802481B590BBA
:1031D0006A0B7B0B403355476105710508F40FCE30
:1031E000809133029091340201969093340280933F
:1031F00033020297D4F20E94FC07D7CF40913502E8
:10320000509136026091370270913802481B590B79
:103210006A0B7B0B403355476105710508F761E088
:1032200072E081EF92E00E944E20892B09F0F6CDEA
:10323000B3C88EE096E00E946B0984E196E00C949E
:103240006B09EF920F931F93CF93DF93E80134E064
:1032500047FD34E1042E000C550B57FF03C0519578
:1032600041955109E32E022F242FAE010E944619E9
:10327000CE01DF91CF911F910F91EF900895FB0147
:10328000DC0105900D920020E1F70895A9E0B0E07F
:10329000ECE4F9E10C94D41C6A01F22EB02E102F4C
:1032A000FBE3AF2EA01608F41BE31F5F012F27E0FE
:1032B000AE014F5F5F4F0E94A51ABC018981982F14
:1032C0009970913009F43FC09BE2E1FC04C09E2D4F
:1032D0009170E0FC3AC05E2D5071E82FE87083FFDA
:1032E00046C084E0911101C083E0EF2DE81B8F15EB
:1032F00008F0E0E0D6018E2F20E2552351F199230A
:1033000029F0D6019C93C60101966C0196012D5FB0
:103310003F4FE2FE24C08EE4D6018C9391E41196D7
:103320009C93119712968C93D9018E2F90E2811164
:103330001BC0E20FF32FF11D10828EEF9FEF299635
:10334000ECE00C94F01C9DE2C6CF90E2C4CF2D932C
:1033500081508111FCCFCE0ED11CE0E0D0CF8EE6A3
:10336000D6018C9391E6DBCF9D938150E0CF482F1F
:10337000447082FF3DC084E0911101C083E08F154D
:1033800010F4EF2DE81BD6018E2F20E2552309F112
:10339000992329F0D6019C93C60101966C019601F0
:1033A0002D5F3F4FE2FE1BC089E4D6018C938EE473
:1033B00011968C93119786E412968C93D9018E2FD7
:1033C00090E2882309F4B5CF9D938150FACF2D93D5
:1033D00081508111FCCFCE0ED11CE0E0D9CF89E61F
:1033E000D6018C938EE611968C93119786E6E4CFE6
:1033F0009B0177FF02C030E020E0A1E0B0E0911136
:1034000002C0B0E0A0E0F9013196AE0FBF1F8B2CD7
:10341000912CBB2009F461C05401EFEFAE1ABE0A33
:10342000AA0DBB1DFA161B0619F014F04F2D4A1BEE
:10343000511188C0E3FC59C07601A42FB0E2A1115C
:103440004FC0C40ED11C992309F45BC040E0D601E3
:103450001196F60190836D01552309F448C0012FA0
:10346000060F9A81582F507184FF03C0913309F4DD
:10347000015010160CF047C0093008F008E0EEE2E9
:10348000FE2E5B01A01AB1088501919481949108E8
:103490002F3F320729F4D601FC92F60131966F01D5
:1034A0006217730794F1021713077CF5DB01A21B67
:1034B000B30BAA24A394B12CAC0EBD1EAA0DBB1D48
:1034C00011968C9121503109D60111962815390594
:1034D000F4F0F60180836D01DBCFB12CA12CA0CFDD
:1034E000F701B1937F01A150AACF9111B0CFD601BE
:1034F000942F50E302C05D9391509111FCCFC40E04
:10350000D11C40E0ACCF01E0BACF80E3DBCF621743
:10351000730731F4963388F4953311F4552369F029
:10352000F6018083FD01842F90E2811108C0A40F71
:10353000B11D1C9290E080E002CF81E3F1CF919326
:103540008150F3CF911183CF8ACF283008F027E044
:103550003327DA01990F311D87FD916000966105CF
:10356000710539F432602E5F3D9330E32A95E1F71F
:1035700008959F3F30F080387105610509F03C5F88
:103580003C5F3D93913008F08068911DDF93CF93AD
:103590001F930F93FF92EF92192F987F9695E92F23
:1035A00096959695E90FFF27EE53FF4F99273327FE
:1035B000EE24FF24A701E70105900894079428F45E
:1035C000360FE71EF81E491F511D660F771F881F13
:1035D000991F0694A1F70590079428F4E70EF81EAA
:1035E000491F561FC11D770F881F991F661F06941C
:1035F000A1F70590079428F4F80E491F561FC71F1E
:10360000D11D880F991F661F771F0694A1F705909B
:10361000079420F4490F561FC71FD81F990F661F24
:10362000771F881F0694A9F784911095177041F0B1
:10363000D695C79557954795F794E7941A95C1F78E
:10364000E8E6F0E0689415901591359165919591B3
:1036500005907FE27395E118F10A430B560BC90BF5
:10366000D009C0F7E10CF11E431F561FC91FD01D22
:103670007EF4703311F48A95E6CFE894015030F06F
:10368000080F0AF40027021708F4202F2395022FB1
:103690007A3328F079E37D932A95E9F710C07D937A
:1036A0002A9589F6069497956795379517951794F7
:1036B000E118F10A430B560BC90BD00998F023957A
:1036C0007E9173957A3308F070E37C932013B8F7FA
:1036D0007E9170617D9330F0839571E37D9370E30B
:1036E0002A95E1F71124EF90FF900F911F91CF9150
:1036F000DF91992787FD9095089591110C94591C9D
:10370000803219F089508550C8F708950E94C81B6F
:1037100008F481E00895E89409C097FB3EF4909581
:103720008095709561957F4F8F4F9F4F9923A9F09A
:10373000F92F96E9BB279395F69587957795679529
:10374000B795F111F8CFFAF4BB0F11F460FF1BC06D
:103750006F5F7F4F8F4F9F4F16C0882311F096E900
:1037600011C0772321F09EE8872F762F05C06623AE
:1037700071F096E8862F70E060E02AF09A95660F67
:10378000771F881FDAF7880F9695879597F9089520
:10379000990F0008550FAA0BE0E8FEEF1616170662
:1037A000E807F907C0F012161306E407F50798F0CA
:1037B000621B730B840B950B39F40A2661F0232BE3
:1037C000242B252B21F408950A2609F4A140A6955F
:1037D0008FEF811D811D08950E94FF1B0C94731CA7
:1037E0000E94651C38F00E946C1C20F0952311F09B
:1037F0000C945C1C0C94621C11240C94A71C0E9459
:10380000841C70F3959FC1F3950F50E0551F629F84
:10381000F001729FBB27F00DB11D639FAA27F00D29
:10382000B11DAA1F649F6627B00DA11D661F829F50
:103830002227B00DA11D621F739FB00DA11D621F35
:10384000839FA00D611D221F749F3327A00D611D52
:10385000231F849F600D211D822F762F6A2F112434
:103860009F5750409AF0F1F088234AF0EE0FFF1F67
:10387000BB1F661F771F881F91505040A9F79E3FBE
:10388000510580F00C945C1C0C94A71C5F3FE4F382
:10389000983ED4F3869577956795B795F795E79514
:1038A0009F5FC1F7FE2B880F911D9695879597F91D
:1038B000089599278827089597F99F6780E870E011
:1038C00060E008959FEF80EC089500240A94161696
:1038D000170618060906089500240A9412161306FE
:1038E000140605060895092E0394000C11F488238C
:1038F00052F0BB0F40F4BF2B11F460FF04C06F5FA8
:103900007F4F8F4F9F4F089557FD9058440F551F7D
:1039100059F05F3F71F04795880F97FB991F61F051
:103920009F3F79F087950895121613061406551FC8
:10393000F2CF4695F1DF08C0161617061806991F34
:10394000F1CF86957105610508940895E894BB2729
:1039500066277727CB0197F90895F999FECF92BD95
:1039600081BDF89A992780B50895262FF999FECF41
:103970001FBA92BD81BD20BD0FB6F894FA9AF99A8C
:103980000FBE019608950E94051DA59F900DB49F3E
:10399000900DA49F800D911D112408952F923F92A8
:1039A0004F925F926F927F928F929F92AF92BF924F
:1039B000CF92DF92EF92FF920F931F93CF93DF93FB
:1039C000CDB7DEB7CA1BDB0B0FB6F894DEBF0FBE58
:1039D000CDBF09942A88398848885F846E847D84A5
:1039E0008C849B84AA84B984C884DF80EE80FD80A7
:1039F0000C811B81AA81B981CE0FD11D0FB6F8941D
:103A0000DEBF0FBECDBFED010895A29FB001B39FF1
:103A1000C001A39F700D811D1124911DB29F700DD7
:103A2000811D1124911D08955058BB27AA270E947B
:103A30002C1D0C94731C0E94651C38F00E946C1C99
:103A400020F039F49F3F19F426F40C94621C0EF414
:103A5000E095E7FB0C945C1CE92F0E94841C58F352
:103A6000BA17620773078407950720F079F4A6F563
:103A70000C94A61C0EF4E0950B2EBA2FA02D0B0172
:103A8000B90190010C01CA01A0011124FF27591BA3
:103A900099F0593F50F4503E68F11A16F040A22FA9
:103AA000232F342F4427585FF3CF4695379527951A
:103AB000A795F0405395C9F77EF41F16BA0B620B19
:103AC000730B840BBAF09150A1F0FF0FBB1F661F60
:103AD000771F881FC2F70EC0BA0F621F731F841FA3
:103AE00048F4879577956795B795F7959E3F08F0C9
:103AF000B0CF9395880F08F09927EE0F979587958B
:103B000008950E94951D0C94731C0E946C1C58F023
:103B10000E94651C40F029F45F3F29F00C945C1C66
:103B200051110C94A71C0C94621C0E94841C68F315
:103B30009923B1F3552391F3951B550BBB27AA2766
:103B400062177307840738F09F5F5F4F220F331FA0
:103B5000441FAA1FA9F335D00E2E3AF0E0E832D068
:103B600091505040E695001CCAF72BD0FE2F29D06B
:103B7000660F771F881FBB1F261737074807AB073D
:103B8000B0E809F0BB0B802DBF01FF2793585F4FB2
:103B90003AF09E3F510578F00C945C1C0C94A71CE5
:103BA0005F3FE4F3983ED4F3869577956795B79594
:103BB000F7959F5FC9F7880F911D9695879597F99F
:103BC0000895E1E0660F771F881FBB1F6217730718
:103BD0008407BA0720F0621B730B840BBA0BEE1F2D
:103BE00088F7E09508950E94FA1D6894B1110C942D
:103BF000A71C08950E948C1C88F09F5798F0B92F3D
:103C00009927B751B0F0E1F0660F771F881F991F11
:103C10001AF0BA95C9F714C0B13091F00E94A61CF1
:103C2000B1E008950C94A61C672F782F8827B85F01
:103C300039F0B93FCCF3869577956795B395D9F769
:103C40003EF490958095709561957F4F8F4F9F4F73
:103C500008950E94C81B08F48FEF089597FB072E64
:103C600016F4009407D077FD09D00E94481E07FC87
:103C700005D03EF4909581959F4F0895709561957C
:103C80007F4F0895EE0FFF1F0590F491E02D0994EA
:103C9000AA1BBB1B51E107C0AA1FBB1FA617B70772
:103CA00010F0A61BB70B881F991F5A95A9F780958E
:103CB0009095BC01CD0108950F931F93CF93DF938F
:103CC0008230910510F482E090E0E0911C06F091C2
:103CD0001D0630E020E0B0E0A0E0309799F4211517
:103CE000310509F44AC0281B390B24303105D8F5B9
:103CF0008A819B816115710589F1FB019383828320
:103D0000FE0111C04081518102811381481759077A
:103D1000E0F04817590799F4109761F012960C9348
:103D2000129713961C933296CF01DF91CF911F917A
:103D30000F91089500931C0610931D06F4CF2115D2
:103D4000310551F04217530738F0A901DB019A0100
:103D5000BD01DF01F801C1CFEF01F9CF90931D063E
:103D600080931C06CDCFFE01E20FF31F8193919348
:103D70002250310939832883D7CF20911A063091F8
:103D80001B06232B41F420911C0130911D0130931F
:103D90001B0620931A0620911A0130911B01211550
:103DA000310541F42DB73EB740911E0150911F01DE
:103DB000241B350BE0911A06F0911B06E217F3075E
:103DC000A0F42E1B3F0B2817390778F0AC014E5F8B
:103DD0005F4F2417350748F04E0F5F1F50931B06A7
:103DE00040931A06819391939FCFF0E0E0E09CCF3F
:103DF000CF93DF930097E9F0FC0132971382128290
:103E0000A0911C06B0911D06ED0130E020E0109756
:103E1000A1F420813181820F931F20911A063091E5
:103E20001B062817390709F061C0F0931B06E093C1
:103E30001A06DF91CF910895EA01CE17DF07E8F562
:103E40004A815B819E0141155105B1F7E901FB8370
:103E5000EA8349915991C40FD51FEC17FD0761F40E
:103E6000808191810296840F951FE901998388834F
:103E7000828193819B838A83F0E0E0E012968D91AA
:103E80009C9113970097B9F52D913C911197CD0115
:103E90000296820F931F20911A0630911B06281755
:103EA000390739F6309751F510921D0610921C060D
:103EB000B0931B06A0931A06BCCFD383C283408164
:103EC0005181840F951FC817D90761F44E5F5F4F6A
:103ED00088819981480F591F518340838A819B8132
:103EE000938382832115310509F0B0CFF0931D062D
:103EF000E0931C069ECFFD01DC01C0CF138212822D
:103F0000D7CFB0E0A0E0E7E8FFE10C94D01C8C0133
:103F1000009751F4CB010E945C1E8C01C801CDB703
:103F2000DEB7E0E10C94EC1CFC01E60FF71F9C01EE
:103F300022503109E217F30708F49DC0D901CD9151
:103F4000DC911197C617D70798F0C530D10530F32B
:103F5000CE0104978617970708F3C61BD70B229745
:103F6000C193D1936D937C93CF010E94F81ED6CF5D
:103F70005B01AC1ABD0A4C018C0E9D1EA0911C0663
:103F8000B0911D06512C412CF12CE12C109731F5EC
:103F900080911A0690911B068815990509F05CC05E
:103FA0004616570608F058C080911A0190911B01DF
:103FB000009741F48DB79EB740911E0150911F01AB
:103FC000841B950BE817F90708F055C0F0931B0602
:103FD000E0931A06F90171836083A0CF8D919C91C3
:103FE000119712966C90129713967C901397A815C0
:103FF000B90559F56C0142E0C40ED11CCA14DB04AA
:1040000020F1AC014A195B09DA011296159780F08C
:104010006282738251834083D9016D937C93E11452
:10402000F10471F0D7011396FC93EE93129776CFBB
:1040300022968C0F9D1FF90191838083F301EFCFAE
:10404000F0931D06E0931C0669CF4816590608F444
:104050002C017D01D3019ACFCB010E945C1E7C0113
:10406000009749F0AE01B8010E943E20C8010E94AD
:10407000F81E870153CF10E000E050CFFB01DC01B8
:1040800002C001900D9241505040D8F70895FB01B5
:10409000DC0101900D920020E1F70895FB015191A0
:1040A0005523A9F0BF01DC014D9145174111E1F7FE
:1040B00059F4CD010190002049F04D914015411176
:1040C000C9F3FB014111EFCF81E090E00197089522
:1040D00012E0C7E7D2E004C0FE010E94421E219612
:0A40E000C837D107C9F7F894FFCFE5
:1040EA00A202A202337313440000B0400000484108
:1040FA004154532020202020200000001E0680006A
:10410A00FD61DBF367B7BFE1FFF7FC60DAF266B681
:10411A00BEE0FEF6FF02C61C3AB7B76F1DEE7C9FE3
:10412A009C000000004403B602E30288031403F370
:10413A000206030D0A0041542B4342414E443D22DC
:10414A004547534D5F4D4F4445220041542B435040
:10415A004D533D224D45220041542B4346554E3D79
:10416A00300041542B4346554E3D310041542B43B8
:10417A004D47533D220030313233343536373839E2
:10418A00003039313938363139353500494E464FE4
:10419A0052005354415254004F46460052554E0065
:1041AA004D41494E5F464F52434500434845434BB4
:1041BA005F47454E00434845434B544B004E4150E0
:1041CA00004E414D450050484F4E4532320050484E
:1041DA004F4E4533330053455454310052494E47EC
:0841EA00004F4B0031302E00A4
:00000001FF
